:020000041000EA
:1000000000B5324B212058609868022188439860DF
:10001000D860186158612E4B002199600221596106
:100020000121F02299502B49196001219960352056
:1000300000F044F80222904214D00621196600F024
:1000400034F8196E01211966002018661A6600F04E
:100050002CF8196E196E196E052000F02FF8012189
:100060000842F9D1002199601B49196000215960AB
:100070001A491B48016001219960EB211966A021F2
:10008000196600F012F800219960164914480160C1
:100090000121996001BC002800D000471248134993
:1000A000086003C880F30888084703B5996A0420EC
:1000B0000142FBD001200142F8D103BD02B5186610
:1000C0001866FFF7F2FF186E186E02BD00000240BE
:1000D000000000180000070000035F00212200005C
:1000E000F4000018222000A00001001008ED00E03C
:1000F00000000000000000000000000074B24E7A12
:1001000000200420F7010010C3010010C5010010F9
:10011000C1010010C1010010C1010010C101001097
:10012000C1010010C1010010C1010010C701001081
:10013000C1010010C1010010C9010010CB01001065
:10014000CD010010CD010010CD010010CD01001037
:10015000CD010010CD010010CD010010CD01001027
:10016000CD010010CD010010CD010010CD01001017
:10017000CD010010CD010010CD010010CD01001007
:10018000CD010010CD010010CD010010CD010010F7
:10019000CD010010CD010010CD010010CD010010E7
:1001A000CD010010CD010010CD010010CD010010D7
:1001B000CD010010CD010010CD010010CD010010C7
:1001C00000BE00BE00BE00BE00BE00BE00F04BF888
:1001D000103800BEF2EB8871740E0110980E0110F9
:1001E0003402001090A31AE700202149086006C8D5
:1001F00081F3088810471F48006800282FD10DA4FC
:100200000ECC002902D000F012F8F9E71A491B4A77
:10021000002000E001C19142FCD1194988471949E9
:1002200088471949884700BEFDE701C901C29A42C3
:10023000FBD37047980E0110C0000020F81B00206F
:10024000D02901100000042000000420D029011052
:1002500000100420001004200000000070470B482C
:1002600002F090FF0047EFF30580C0B27047000036
:1002700008ED00E0000000D0F81B00203021002035
:100280004D170010610300100917001057560000A9
:1002900006005250ABB3605334ED001006005250CC
:1002A000861C030244ED0010060052505422A29D09
:1002B0005CED001005005250DE65F468D029011095
:1002C000F8B5C04606480749091A8B10C90FC91866
:1002D00010B5491003D0044B002B00D0984710BD37
:1002E000F81B0020F81B002000000000054B10B593
:1002F000002B03D00449054800E000BFFFF7E2FFF0
:1003000010BDC04600000000E01E0020D0DE00103E
:10031000F8B5070014004E1E11E06421200002F021
:1003200085FF4D006421200002F080FF04006A1C5C
:100330000A4B9A5CBA55721E5B5DBB54023E632C3D
:10034000EBD8092C07D96400621C044B9A5C7A70C4
:100350001B5D3B70F8BD30343C70FBE7D0DE001015
:1003600070B5C6B004F040F8224800F007FE224BFA
:1003700006938021214C490120000DF071FD80225F
:10038000520006A920000DF033FD1D4B1D68EE0F35
:10039000002D11DB28000124092810D963280DD96C
:1003A000FA239B00984220D3164B98421FD9164936
:1003B00002F03CFF0434EFE76D42EBE70134311902
:1003C00002AB00932D22684604F0D2F80098801901
:1003D0002A002100FFF79CFF009803F0F9FF684610
:1003E00004F0BCF8002046B070BD0234E7E70334E7
:1003F000E5E7C0468813000040E2010000F01F005E
:1004000000F01F100F2700001027000010B5830018
:10041000084A944663441A68402462408034144079
:100420008022520113431C60C000034B9C46604471
:10043000416010BD04C0014000400140EFF3108056
:1004400072B6034B1B68002BFBD0BFF35F8F704766
:100450002C0100D0BFF35F8F024B00221A6080F3A3
:10046000108870472C0100D0F8B506000C0015006C
:10047000FFF7E4FFE308F718F15C072222400123AD
:1004800093400B4205D1DBB20B433B70FFF7E2FF19
:10049000F8BD2100280001F0D5F90000034B1B68CE
:1004A00002201840431E9841C0B2704700C0064069
:1004B000002307E0054A9A189200BFF35F8F0021DE
:1004C000116001331F2BF5D97047C046400000343E
:1004D000054A1078431CDBB21370172B02D91300A6
:1004E00010221A707047C046E012002070B5040058
:1004F0000D00062001F0C0FAC000290002F096FEAF
:10050000C60908D00E4B9E4217D87F230340013303
:1005100035005E0800E001256562A6622C34802368
:100520009B01234300221A60062001F0A5FA8000F7
:10053000A901891902F07AFE70BD0026014DEBE792
:10054000FEFF0000FFFF0000002909D00A22064B31
:100550009C46604443425841044B4000C25270479D
:1005600080225200F3E7C0460080FCBF202100201B
:1005700070B505000C00062001F07EFA002829D095
:10058000164B9D4227D08022D203154B1A60154B83
:100590001A60154B9B6811009943FAD1002128007D
:1005A000FFF7D2FF21002800FFF7A0FF29002C3120
:1005B000EB6A602253400E321A4080235B010B43EA
:1005C0001A600A4B2B6380239B010B4310221A6095
:1005D0000323AB6470BD80221204D6E70080034081
:1005E00000E0004000F0004000C0004001030000B7
:1005F00070B505000C00080000F00EFD200000F0B2
:1006000017FE0849200000F057FDFFF761FF064B79
:100610009C466044800068602C75044BA400E55043
:1006200070BDC0462509001040000034F81E0020AF
:100630000A4B1A68EFF3108172B61368002BFCD0D6
:10064000BFF35F8F054B1B68BFF35F8F00221A60FB
:1006500081F3108840BF0020002170470C2100204A
:1006600010B5002920D003681B7B99421CD88368F1
:10067000154CA446614409015B181C685968002A9E
:1006800018D003681B7B9A4214D883680E488446AE
:10069000624412019B181A685B6801208B4201D8E2
:1006A0000ED00020C0B210BD084B094A09483B21BA
:1006B00001F02EF8054B064A06483B2101F028F8C8
:1006C000A242EFD8EDE7C046FFFFFF0FE8DF0010C2
:1006D0006CE20010B0DF001010B500291DD0037BC4
:1006E00099421AD804684B005B18033BE4180029B0
:1006F00019D0002A1DD0914221D0002A25D0037B99
:100700009A4222D8006853009B18033BC318997083
:10071000217800291FD1227010BD104B104A1148BA
:10072000692100F0F5FF104B104A0E48703100F0BF
:10073000EFFF0F4B0D4A0B48712100F0E9FF0D4B05
:100740000A4A0848722100F0E3FF044B044A0548B6
:10075000692100F0DDFF59702270DDE71CE0001018
:10076000D8E2001038E0001084E00010B4E200107D
:1007700090E000109CE0001070B506000D00140021
:10078000002914D0002A14D04368806898470028B4
:1007900006D0220029003000FFF79EFF280007E066
:1007A0002A0021003000FFF797FF200000E0100032
:1007B00070BD0800FCE70000F0B583B005000092B2
:1007C00001930AAB1C780BAB1F78002C26D0036872
:1007D0005A7B944207D10123002B19D1002C3AD126
:1007E000200003B0F0BD002C0CD01A7B944209D835
:1007F0001A6863001B19033BD3189B78002BEBD0BE
:100800000123E9E73C4B3D4A3D48692100F080FF68
:100810003C4B3D4A3D48652100F07AFF03689C7BD4
:10082000002CDBD011D01A7B94420ED81A686100DC
:1008300009190339521851789973002900D1D973D5
:100840000023937053701370C8E72B4B2B4A2C482E
:10085000692100F05DFF002C37D02B681B7B9C4288
:1008600033D8AB682A4AA21812019B18009A1A6062
:10087000019A5A60089A9A60099ADA602E68002CE8
:1008800029D02ED0337B9C422BD8336862001219BA
:10089000033A9B1800229A705A701A70717B2200DA
:1008A0003000FFF769FF7073844299D1287D009A68
:1008B000019B00F049FC061E01D0002F17D00C9BB5
:1008C000002B00D18CE71E708AE7124B124A0F48AA
:1008D0003B2100F01DFF114B114A0948A62100F0F1
:1008E00017FF054B054A0648692100F011FF2868EB
:1008F000210000F06FFEE2E71CE00010D8E20010DB
:1009000038E00010B4E00010E4E20010B0DF0010A6
:10091000FFFFFF0FE8DF00106CE20010ACDF0010FB
:10092000C8E20010F0B5DE4657464E464546E0B5F3
:100930008BB0099000230893B24B8200D55833E066
:10094000B14BB24AB2483F2100F0E2FEB14BB24A8D
:10095000B2483B2100F0DCFEB14BB24AAF488C21DB
:1009600000F0D6FEB04BAF4AAC48902100F0D0FE6C
:10097000A84BAE4AA948402100F0CAFE43461A6877
:100980005B68099800F0E0FB00239B469A466B6881
:10099000BFF35F8F00221A6089F310885346002B43
:1009A00053D1002800D126E100F042FB02000B1ECB
:1009B000C6DB00200021069007916868EFF31089DC
:1009C00072B601680029FCD0BFF35F8F2868447BB2
:1009D000002C35D0BAD0017B8C42B7D8AE68944990
:1009E00061180901B046884441460E684F68B61A3E
:1009F0009F41002FC2DC01D1002EBFD1002100F0A9
:100A0000DFFDA042A8D143461A685B6806920793AF
:100A100043469B689A464346DB689B465346002BF9
:100A2000A0D0002CA4D02B681B7B9C42A0D8EA68E5
:100A3000631ED35C08931B02184328610020A6E7BD
:100A400000239B469A460020A1E7089B1B022343F4
:100A5000984659461800D04706000F006A68EFF321
:100A6000108972B6136859424B41D9B2002BF9D1A3
:100A7000BFF35F8F002F26DB002F52DD2B69002B89
:100A800053D0434572D100F0D3FA02000B1E73DB42
:100A90000100180092197B41984202D804D191427A
:100AA00002D901225242D317002B6BDB00210491A3
:100AB0000131039102945946019151460091280059
:100AC000FFF77AFE49E02B69002BD5D043451CD1B6
:100AD000069A079B10001900921BBB41994202D84D
:100AE00004D1904202D901225242D317002B12DBCB
:100AF000002104910131039102945946019151461C
:100B000000912800FFF758FE27E04A4B454A43482A
:100B10009F2100F0FDFD3C4B3C4A3D483F2100F049
:100B2000F7FD002F01D1002EA8D12A68002C44D057
:100B3000537B9C422CD1012100293ED1D37B002B39
:100B400041D1D473002C50D02B681B7B9C424CD8D5
:100B5000EA68013C135D0133135500232B616A6879
:100B6000BFF35F8F136089F310881DE7314B2D4A67
:100B70002A48A22100F0CCFD234B244A24483F21DF
:100B800000F0C6FD204B214A21483F2100F0C0FD66
:100B9000002C0CD0137B9C4209D8106863001B19F1
:100BA000033BC3189B78002BC6D00121C4E7224B1E
:100BB000224A2348692100F0ABFD224B224A2048FB
:100BC000F72100F0A5FD002B09D0117B8B4206D840
:100BD00010685900CB18033BC3185C70B1E7164B83
:100BE000164A1748692100F093FD0A4B0F4A0B483B
:100BF000402100F08DFD0BB0F0BCBB46B246A946CB
:100C0000A046F0BDF81E0020DCE0001038E2001025
:100C1000F8E00010E8DF00106CE20010B0DF001018
:100C200040E1001050E2001058E1001090E2001086
:100C3000FFFFFF0F64E100101CE00010D8E200107D
:100C400038E00010A0E10010A4E2001010B50A4B3B
:100C50005B68002B04D009480A2100F009FB10BD95
:100C6000054C074A20682300102100F0CDFB03212A
:100C70002000FFF7BDFCEEE7E41200200C2100206D
:100C80006106001010B5064B5B68002B01D00448CC
:100C900010BD044B044A05485C2100F039FDC046F4
:100CA000E4120020C4E1001078E20010B0DF001070
:100CB000F0B5DE4657464E464546E0B58BB0804619
:100CC00016001F00149B9A46159B994616AB1B787D
:100CD0009B461F2302AA9446634400221A7036E002
:100CE000002809D042461268127B904204D842463E
:100CF000D168421E8A5C4CE0454B464A464840213A
:100D000000F006FD0798002B79D05B46002B76D0CB
:100D10004946D04704000D0003000B4300D175E0A5
:100D200000294ADB00F084F902000B1E59DB0100A8
:100D3000180012196B41984202D804D1914202D98D
:100D400001225242D317002B51DB16001F004346ED
:100D50005A68EFF3108472B6136859424B41D9B206
:100D60000791002BF8D1BFF35F8F1F3302AA94467F
:100D7000634404930023039302934B460193534629
:100D8000009332003B004046FFF716FD031EA7D13B
:100D9000020041464968BFF35F8F00250D6084F370
:100DA0001088002B29D01F2302A98C4663441B788E
:100DB000002BA7D112021043A5E730003900361BE3
:100DC000AF41B94202D804D1B04202D901267642DD
:100DD000F717002FBBDA114B114A12483F2100F0E0
:100DE00097FC0E4B0E4A0F483F2100F091FC0B4B35
:100DF0000B4A0C483F2100F08BFC012040420BB015
:100E0000F0BCBB46B246A946A046F0BD0798F6E73F
:100E1000E8DF001090E20010B0DF0010DCE000100E
:100E200038E20010F8E00010F0B587B006000F00BF
:100E3000FFF719FA00281FD106246442E517A41908
:100E40007D41BD4202D803D1B44201D9002400251E
:100E5000002D14DB0494059500F0EAF802000B1E47
:100E600013DBA41A9D41002D17DC14D0300039008B
:100E700000F0EAF807B0F0BD234800F0E3FC234B94
:100E8000234A24483F2100F043FC204B204A2148BC
:100E90003F2100F03DFC002CE8D0FFF7F3FE0023DB
:100EA000029301931C4B0093049A059BFFF700FFEC
:100EB000002818DADAE7002300E00023002BD5D160
:100EC000164B1A68EFF3108172B61368002BFCD032
:100ED000BFF35F8F114B1B68BFF35F8F00221A6057
:100EE00081F3108820BF0499059A0D4B5B6A9A42E2
:100EF000E3D80B48806A884203D29A42DBD00123B0
:100F0000DCE70123DAE7C046E8E10010DCE000108E
:100F100038E20010F8E00010310600100C2100202B
:100F200000400540F8B504000D0000F081F8020013
:100F30000B1E10DB20002900801859418B4202D87B
:100F400004D1824202D901204042C117002908DBA6
:100F5000FFF76AFFF8BD064B064A07483F2100F03D
:100F6000D7FB034B034A04483F2100F0D1FBC046A6
:100F7000DCE0001038E20010F8E0001010B5FA22B2
:100F800092000023002102F095FFFFF7CBFF10BD78
:100F900070B5EFF305833F2018401038EFF3108C45
:100FA00072B6184B1B68002BFBD0BFF35F8F012379
:100FB00019008140144A5163144A12781400C44045
:100FC000234213D0104B5C6A114B8500EB589C42B6
:100FD00005D3104BEB580D4C8A43227007E00A4AA8
:100FE000031D9B0099589950002300E00023BFF394
:100FF0005F8F044A002111608CF31088002B00D011
:10100000984770BD280100D0004005402C210020E9
:1010100010210020581D002010B50100024A034B8A
:101020001800FFF721FA10BD08E300102A21002064
:10103000044B5B6A034A906A1900536A9942F9D1DA
:101040007047C04600400540084B5B6A01E0074B13
:101050005B6A8B42FBD301E0044B5B6A8B4203D19A
:10106000024B9B6A8342F7D37047C046004005405D
:1010700070B504000D00FFF7DBFF02000B0020003D
:101080002900801859418B4202D804D1824202D9EA
:1010900001204042C117002902DBFFF7D5FF70BDD8
:1010A000024B034A03483F2100F032FBDCE0001012
:1010B000B0E30010F8E0001070B504000E00EFF38C
:1010C000108572B61B4B1B68002BFBD0BFF35F8FE4
:1010D000002E1CD0200000F047FD174B83420BD0A0
:1010E0001900200000F048FD0121200000F034FD2F
:1010F0000123A340114A1360114BA400E650BFF333
:101100005F8F0C4B00221A6085F3108870BD0C4B6A
:10111000A2000021D1500122A2400A490B7893433A
:101120000B700549200000F051FD0021200000F067
:1011300013FDE4E7280100D0910F0010386005404E
:10114000581D00202C210020F0B5DE4600B584B0EB
:101150000400150001921E000293FFF769FF03953A
:101160008E4202D84ED185424CD9EFF3108B72B625
:10117000274B1B68002BFBD0BFF35F8F254A1778E6
:101180000125A540EBB23B431370234B5D63221D49
:1011900092000199D150214AA100029888501B6AFF
:1011A0002B4212D11C4B1B6C2B4208D00020BFF3EA
:1011B0005F8F174B00221A608BF3108823E0184BC7
:1011C000184A1948C12100F0A3FAFFF731FF8E42F7
:1011D00014D802D1039B834210D80E4B1B78BB421C
:1011E0000ED00D4B1D625D631F22224001239340F0
:1011F0000E4A1360074B1F700120D8E70020D6E786
:101200000120D4E7012004B080BCBB46F0BDC0463D
:10121000280100D02C210020004005401021002092
:101220002CE3001094E3001050E3001080E200E093
:10123000EFF3108C72B60B4B1B68002BFBD0BFF387
:101240005F8F01238340084A136208490A789A4352
:101250000A70BFF35F8F034B00221A608CF3108873
:101260007047C046280100D0004005402C210020D6
:10127000024B9C4661448900016070474000003485
:1012800010B50400FFF724F901002000FFF7F0FF7C
:10129000FF232371BFF35F8F10BD10B50400FFF76C
:1012A00017F901002000FFF7E3FFFF23237100235C
:1012B0006371BFF35F8F10BD10B500291DD0037B94
:1012C00099421AD804684B005B18033BE4180029C4
:1012D00019D0002A1DD0914221D0002A25D0037BAD
:1012E0009A4222D8006853009B18033BC318997098
:1012F000217800291FD1227010BD104B104A1148CF
:10130000692100F005FA104B104A0E48703100F0C8
:10131000FFF90F4B0D4A0B48712100F0F9F90D4B05
:101320000A4A0848722100F0F3F9044B044A0548C0
:10133000692100F0EDF959702270DDE71CE0001022
:1013400054E5001038E0001084E0001040E5001083
:1013500090E000109CE0001070B506000D00140035
:10136000002914D0002A14D04368806898470028C8
:1013700006D0220029003000FFF79EFF280007E07A
:101380002A0021003000FFF797FF200000E0100046
:1013900070BD0800FCE7000010B500234373013363
:1013A0008373037BC3730123027B9A4213D9002BFF
:1013B0000BD0027B934208D801685A00D218033A36
:1013C0008A180133DBB25370EEE70C4B0C4A0D4820
:1013D000692100F09DF9002A09D0924207D80168DE
:1013E00053009B18033BCB1800225A7010BD034BCF
:1013F000034A0448692100F08BF9C0461CE0001044
:1014000054E5001038E0001010B5017342608360AD
:10141000FFF7C2FF10BD000070B50400081E00D128
:1014200070BD002931D0237B99422ED822684B0011
:101430005B18033BD3185A78002AF1D02BD0237BBA
:101440009A4228D8216853009B18033BCB185D783B
:1014500000215970002824D0237B984221D821688C
:1014600043001B18033BCB180021597001002000DA
:10147000FFF772FF060029002000FFF7CDFF0200F2
:1014800031002000FFF768FFCAE7094B094A0A4804
:10149000692100F03DF9064B064A0748692100F032
:1014A00037F9034B034A0448692100F031F9C0467B
:1014B0001CE0001054E5001038E0001070B5050085
:1014C0000C001600002927D02CD0037B994229D884
:1014D00003684900091903395B185A78002A27D193
:1014E0009A78002A2AD11978FFF796FF0300002E78
:1014F00003D0EA7B002A27D1EC73002B36D1002CD5
:1015000047D02B7B9C4244D82A6863001B19033BBD
:10151000D31800225A7070BD214B224A224838212C
:1015200000F0F6F8214B224A2248692100F0F0F839
:10153000214B1C4A1C483A2100F0EAF81F4B194A7B
:1015400019483B2100F0E4F8002A09D0297B8A429F
:1015500006D82E6851008A18033AB2185470CBE7A7
:10156000124B134A1348692100F0D2F8002B0AD01D
:101570002A7B934207D82A6843001B18033BD318E1
:1015800000229A70BBE7094B094A0A48692100F01A
:10159000BFF8064B064A0748692100F0B9F8C04673
:1015A00060E400102CE5001068E400101CE000105E
:1015B00054E5001038E00010A0E40010C8E400106A
:1015C00070B504000A00457B2900FFF777FF6073C0
:1015D000280070BD70B50400002966D0437B8B42A3
:1015E0000ED0002911D0037B99420ED805684B001C
:1015F0005B18033BED18AB78002B0CD1002055E0B5
:101600000121FFF7DDFF012050E0294B294A2A483C
:10161000692100F07DF8002B1FD0027B93421CD87B
:1016200000685A00D318033BC218C35C8B421AD01F
:10163000002B1BD0227B934218D820685A00D31865
:10164000033BC01843788B4216D0002BF0D11B4BC4
:101650001B4A1C48672100F05BF8154B154A1648D9
:10166000692100F055F86B78137007E0104B114AB0
:101670001148692100F04CF86B7843700023AB707F
:101680006B7001222000FFF719FF0200617B81428D
:1016900005D02000FFF760FE6073012006E00A4BD2
:1016A000074A08486D2100F033F8002070BDC0469D
:1016B0001CE0001054E5001038E00010ECE40010CD
:1016C00014E5001068E40010F4E4001000BEFDE72B
:1016D00003000A4A1268002A08D0084A1068C31892
:1016E000074A9A4206D3054A13607047034A0549E0
:1016F0001160F2E701204042F7E7C046DC1E0020FF
:10170000000004203021002010B5FFF7DFFF0000AB
:1017100030B583B00D001900002A0DD0084B002A07
:101720000CD0084C019200932B000200200002F024
:101730004FFE0120FFF7CAFF034BF0E7024AF0E734
:1017400060E5001070E500106CE5001070B52B4BE3
:101750002B4A1A602B4B2C4A1A602C4B9A682A4B46
:101760009343FAD12A4C01E008CC9847294B9C427C
:10177000FAD300F001F9234B274A1A60234B9B68E8
:10178000DB43DB01FAD1254B40229A675A671A677F
:10179000DA66234C09E0234B234A24488321FFF7D0
:1017A000B7FF2000FFF76CFD0834214B9C4209D2A3
:1017B0002368002BF5D0012BEDD12000FFF76DFD44
:1017C0000834F2E71B4DA9681B4CC022200002F030
:1017D00047FCAC60FEF747FD002800D000BEFEF7D6
:1017E00067FE00F041FBFFF731FA144C01E008CC32
:1017F0009847134B9C42FAD370BDC04600E00040AE
:10180000BFCDFBFE00F00040FE7F3C0000C000406A
:10181000E01B0020F01B0020FFFFFF0100F0014053
:10182000D81B0020A0E5001014E60010C0E5001051
:10183000E01B002000ED00E000000020F01B002075
:10184000F81B00200FB400B583B0084802F08EFDED
:10185000049B002B07D005A90191180002F096FD0A
:10186000034802F083FD0120FFF730FF04E600107B
:1018700050F10010F8B5DE4657464E464546E0B5F5
:1018800006000F0015000A9A93424ED31A0E924694
:101890001B0298460A9A00234046514601F008FD73
:1018A00081467400A419A4002E4B9C4664446368CE
:1018B000834200D26060331FDBB29B46012B3AD9D2
:1018C000C0239B012343802212011A60264BB200E1
:1018D000D158002905D0586901F0A8FC0130013821
:1018E000FDD16D0123685D40E0222A4080235B0129
:1018F00023431A605A46012A28D980239B01234397
:10190000802212011A604B4663604A46002340461B
:10191000514601F0CDFC144BB60098510120F0BCAB
:10192000BB46B246A946A046F8BD104B104A114826
:101930002D21FFF7EDFE012FC2D1C0239B012343D0
:1019400003221A60A368DB07FCD5CAE72168794047
:1019500003220A401A60A3680125BD401D42FAD047
:10196000CBE7C04600800040681E002024E600103F
:101970007CE6001038E6001030B583B00C2000F093
:101980000DFBFEF78BFD00280DD0002304E02E4A4E
:1019900099002E4888500133092BF8D92A4B2C4A3C
:1019A0005A6203B030BD2B4B00229A6700F0FEFA5A
:1019B000294B01221A60274B5B6C012BFBD1274B73
:1019C00003221A60234B9B6B012BFBD10224009452
:1019D0000533234A0121234800F054FA00940523DB
:1019E000214A0121214800F04DFA214B00930022A9
:1019F00002210420FFF73EFF1E4D00952B00002220
:101A000001210520FFF736FF104C0094230000222F
:101A100000210720FFF72EFF009423000022002161
:101A20000820FFF727FF0A4B009323000022002124
:101A30000920FFF71FFF00952B0000220021062040
:101A4000FFF718FFADE7C046681E0020006CDC02FF
:101A50001BB70000008000403CB0004030B00040A8
:101A6000002F68590080024000389C1C00C00240D2
:101A7000001BB70040597307014B8000C0587047E6
:101A8000681E0020074B9B68103080001950BFF380
:101A90005F8FBFF35F8F044B0021196082F31088C2
:101AA0007047C04600ED00E0240100D010B5091ACF
:101AB00004394B08090B05D15B055B0D044818433D
:101AC00080B210BD034B044A04488B21FFF720FE6F
:101AD00000E0FFFF8CE6001098E800109CE6001084
:101AE00010B5091A04394A08090B08D14905490DEE
:101AF000064B0B430380064B1343438010BD054B3D
:101B0000054A06489321FFF703FEC04600F0FFFF99
:101B100000F8FFFF8CE600106CE800109CE6001057
:101B200001238340034A10681840431E9841C0B205
:101B30007047C04600E100E0002904D0034B186064
:101B4000034B18607047034B1860FBE780E200E02E
:101B500000E100E080E100E010B5012383401800BF
:101B6000FFF7EAFF10BD0000024B9B6810308000B9
:101B7000C058704700ED00E070B504000D00EFF3B1
:101B8000108672B60C4B1B68002BFBD0BFF35F8F27
:101B90002000FFF7E9FF094B984201D0A84205D188
:101BA000320029002000FFF76DFF70BD044B054A8D
:101BB00005486E21FFF7ACFD240100D0CD010010D7
:101BC000DCE60010B4E800109CE60010F0B5CE464C
:101BD000474680B583B006000D00EFF3108872B65B
:101BE000574B1B68002BFBD0BFF35F8F554B9A6898
:101BF00034001034A300D758534B9F4207D0AF4254
:101C000000D19BE00197514BFB1A2F2B09D942467B
:101C100039003000FFF736FF03B0C0BCB946B0460C
:101C2000F0BD3000FFF77CFF814600213000FFF758
:101C300093FFBFF35F8FFEF716FB002801D08442AD
:101C40001AD10123019C9C43404A414B2100891A2F
:101C500049414B431B0D5BB29C460021A368AB423C
:101C600012D00622A256002A0DDB53009B189B00BF
:101C7000364A2100D418F1E7364B374A1E2137483F
:101C8000FF31FFF745FD2100AB4250D106256557D6
:101C9000002D37DB2D4B6A00521992009B189A6871
:101CA000A260DA79E2719B795BB2A371002B10DA42
:101CB000BD200002A080254B6A00521992009B189B
:101CC000274A11789971157049463000FFF744FF93
:101CD0009DE7201D6B005B199B001C4A9B18191D7A
:101CE0009B88DA0A1C2A07D15B055B1502335B006F
:101CF000C918FFF7DBFEDDE71A4B1B4A174899218D
:101D0000FFF706FD00280DD1002909D0FF238B71B4
:101D1000164B8B80124B1A78A27162461A70D3E769
:101D2000094FF7E71249201DFFF7DAFECCE7114B08
:101D3000094AA92109484900FFF7EAFC024F66E772
:101D4000240100D000ED00E0CD0100100C130020B4
:101D5000AAAA0000F0E7001084E800109CE600103A
:101D60002B210020D8E70010A4E8001000BDFFFFE1
:101D70004613002014E8001070B504000126064345
:101D80002D4BF31A2F2B28D8FEF76DFA00282BD0F5
:101D9000EFF3108C72B6294B1B68002BFBD0BFF3FE
:101DA0005F8F254A264D2100891A49414D432D0D4B
:101DB0006DB2244B9B6880001B58B3421BD000219E
:101DC000032932D81C4B4A00521892009B189B7969
:101DD0005BB2AB421FD00131F2E71B4B1B4A7821AB
:101DE0001B48FF31FFF794FC1A4B184ABD211848D5
:101DF0004900FFF78DFC134B9B68174A1A50174B8D
:101E00001A78A2711D70BFF35F8F0C4B00221A600D
:101E10008CF3108870BD084B4A00501880001818C9
:101E2000FF2686710E4A8280E9E70E4B074A8C2115
:101E30000748FF31FFF76CFC0C130020240100D091
:101E4000AAAA000000ED00E01CE8001050E8001015
:101E50009CE6001044E80010CD0100102B2100206A
:101E600000BDFFFFECE400100022044B02E0044937
:101E700002C30132072AFAD97047C04600E400E0E5
:101E800080808080F0B5CE4600B504000E009146FB
:101E90001F000C2001F0CAF9050043011B1A99012B
:101EA000C91AC90009188901484601F0BFF90200A2
:101EB000103A98235B009A4233D87B1E062B36D803
:101EC000069B013B062B32D8069B9F4235D34B46DF
:101ED0001B09AB4237D33F04069B1D032F432368E6
:101EE000002B36DB234B9C4241D080235B01224AEE
:101EF0001360224A1360224A926819009143FAD172
:101F00002660A060221DC0239B01134321221A607A
:101F10002268002AFCDAE76008221A6080BCB94611
:101F2000F0BD184B184A19481621FFF7F1FB184B62
:101F3000154A16481921FFF7EBFB164B124A1348B6
:101F40001F21FFF7E5FB144B0F4A10482221FFF732
:101F5000DFFB22683F231340B342C3D1A3681B05B4
:101F60001B0D8342BED1E368002FBBD1D6E780238F
:101F70009B01BCE700C0024000E0004000F00040D0
:101F800000C00040D0E80010ACE90010ECE8001000
:101F90002CE9001078E9001090E9001080239B00E4
:101FA0000343014AD362704700800540064BAA22D2
:101FB00012011A602F22DA60044B054A1A60024BA4
:101FC0005B68002BFBDA7047004002400060024073
:101FD00000B0FA009A4200D288547047704710B59A
:101FE000002802D00B684968984710BD0100002006
:101FF00007E083001B185B00501C08601078C018B5
:1020000030380A681378303BDBB2092BF1D97047BE
:10201000F0B5DE4657464E464546E0B583B093469A
:102020001F000C9B9A460D9C0E9B99460F9B9B078D
:1020300003D0B8460F00060022E00192A34688466E
:102040004E46B9460700B44207D2551C4B4641469E
:102050002020B84701342A00F5E73D004F465C4692
:10206000019B9B46B1464646B84637002E0007E026
:10207000013C551C5346185D43463900B0472A00C1
:10208000002CF5D135003E0047460F9B9B0707D437
:10209000100003B0F0BCBB46B246A946A046F0BD56
:1020A000B0464E46B9462F005D46531BB342EFD2B1
:1020B000541C4B4641462020B8472200F5E7F0B5B6
:1020C000CE46474680B585B0944698460C9D0D9CFB
:1020D0000EAB1B789946109A119B129EB7071CD421
:1020E000002B0CD0F7070AD54F46002F02D10C3732
:1020F000374204D0013B02E030272F55013494428F
:1021000001D21F2CF8D9F70707D59C4205D21F2C06
:1021100003D830272F550134F5E7F70615D5770595
:1021200005D4002C03D0944224D09C4222D00F9A94
:10213000102A2BD00F9A102A30D00F9A022A35D0AD
:102140001F2C02D830222A5501341F2C05D84A46AC
:10215000002A31D02D222A5501340396029301948E
:10216000009543466246FFF753FF05B0C0BCB94631
:10217000B046F0BD621E012C06D00F9F102F01D07B
:102180001400D4E7023CD2E71400D0E7B206D1D461
:102190001F2CCFD878222A550134D1E7B206CCD5EE
:1021A0001F2CCAD858222A550134C9E71F2CC7D87A
:1021B00060322A550134C3E7720703D52B222A5512
:1021C0000134CAE73207C8D520222A550134C4E7B2
:1021D000F0B5DE4657464E464546E0B593B08146DB
:1021E0008A46089209931CAB10CB1B789B461E9D18
:1021F000219B9846002C03D1102342469A439046D7
:102200008023DB0046461E4042461A4212D0002C74
:1022100022D000260EE03031CBB2771C0AAA9355AB
:102220002900200001F002F8AC4216D31F2F14D869
:102230003E0004002900200000F0F8FFC9B209297F
:10224000E9D943469B0605D541235B18DBB20A3B1F
:10225000DBB2E2E76123F8E7270043460693209BC1
:1022600005931F9B049303955B46029301970AAB6A
:102270000093099B089A51464846FFF720FF13B088
:10228000F0BCBB46B246A946A046F0BDF0B5DE465E
:1022900057464E464546E0B595B0089009910A92DA
:1022A0000B931E9E1F9C20AB1B789B46229B99463E
:1022B000239D269B9A463300234303D11033524675
:1022C0009A4392468023DB0057461F4052461A42EB
:1022D00019D0330023432DD0002714E03032D3B27D
:1022E0007A1C90460CAAD3554A462B003000210098
:1022F00000F0DEFFA5421FD819D043461F2B1BD884
:10230000474606000C004A462B003000210000F032
:10231000CFFFD2B2092AE1D953469B0605D5412306
:102320009B18DBB20A3BDBB2DAE76123F8E7B14581
:10233000E3D901E00023984653460693259B059375
:10234000249B04934B4603935B46029343460193BD
:102350000CAB00930B9B0A9A09990898FFF7AFFE04
:1023600015B0F0BCBB46B246A946A046F0BD000081
:10237000F0B5DE4657464E464546E0B591B0834639
:102380008A460C9298461A9C08941B9D0995220037
:102390002B002000290001F01AFA002800D0E5E007
:1023A00001225242D74B2000290001F00BFA0028ED
:1023B00000D0DBE001225242D34B2000290001F083
:1023C000EBF9002800D0D1E000220023089E300065
:1023D000099D290001F0E0F9002800D0DDE0089A0D
:1023E000099B069207938023DB001E9A1A400D92E8
:1023F0001E9A1A4201D106231C93069807990400DD
:102400000D000A000600024300D1D1E0080D40058E
:10241000400DBE4CA44660440A03120BBC4B134350
:102420001F0001F0E7F9BB4ABB4B01F072F9BB4A50
:10243000BB4B01F047F904000D000022B94B3000FE
:10244000390001F036F9B84AB84B01F062F90200E0
:102450000B002000290001F035F901F0E3F9814675
:1024600001F0C8F904000D00B14AB24B01F051F976
:102470000022B14B01F026F901F0D4F90600AF4A71
:10248000AF4B2000290001F044F904000D0030009A
:1024900001F0B0F9AB4AAC4B01F03BF902000B0084
:1024A0002000290001F005F904000D0002000B00D6
:1024B00001F02FF90A900B91A44BF31800261F0589
:1024C00022002B002000290001F0FCF80E900F9153
:1024D00022002B0000208021C90501F0EAF8040049
:1024E0000D0000229A4B0A980B9901F0F4F8002293
:1024F000984B01F0E7F802000B000A980B9901F0E5
:10250000EAF80022944B01F0DDF802000B000A9873
:102510000B9901F0E0F802000B002000290001F007
:10252000D1F802000B000E980F9901F0D4F80022A8
:10253000774B01F0C7F832003B0001F0EAF80600E3
:102540000F0004000D00069A079B01F03BF90028DC
:1025500030D001235B429C46E14400227D4B300099
:10256000390001F0B8F804000D0023E01E9B04932D
:102570001D9B03931C9B0293089A099B0092019355
:1025800043460C9A5146584600F0FCF811B0F0BC96
:10259000BB46B246A946A046F0BD002300240693E0
:1025A0000794069680231B069C46654407951AE708
:1025B000002399464B466333C62B1ED804261E9B28
:1025C0001B0526D52B0023430FD0644A644B069885
:1025D000079901F0EFF8002879D00022614B0698A6
:1025E000079901F0D9F8002871D01C9B4B4506DDF6
:1025F0004A469B1A013B1C9303E00526DFE70023B4
:102600001C938023DB001E9A1A431E92002600238F
:1026100099461D9B9E4264D29F1B02231E9A1A401C
:102620000A921E9A134202D0002E00D000274B4679
:10263000002B07D022002B000698079901F04BF8D9
:1026400006900791002200230898099901F0A4F848
:10265000002848D1444B1E9A1340049303971C9BB7
:102660000293069B079C0093019443460C9A5146A3
:10267000584600F087F8002E00D187E71E9B9B0686
:102680003DD54525441C4346020051462800D84705
:102690004A46D317D2185A4005230593013E0496A3
:1026A000002303930A3302934B46DB0F01930092FE
:1026B0004346220051465846FFF78AFD0A9B002BED
:1026C00000D163E702005F460C9E1D9D54E01C9BF9
:1026D000002B9ED00D9B002B9BD01C9B013B1C9381
:1026E00097E7002799E7069C079D22002900802094
:1026F0000006844661440B0006920793AAE765250D
:10270000C0E7C046FFFFEF7FFFFFEFFF01FCFFFFC9
:102710000000F03FFB799F501344D33FB3C8608B58
:10272000288AC63F0000F83F61436F63A787D23F06
:1027300071A379094F930A400000E03F1655B5BBDD
:10274000B16B0240EF39FAFE422EE63FFF03000074
:1027500000002C4000002440000018402D431CEBDA
:10276000E2361A3F80842E41FFF7FFFF541C434698
:1027700051462020B8472200931BAB42F6D31000ED
:1027800004E7C046F0B5DE4657464E464546E0B53E
:1027900095B00690079193469946209F1E9A1F9BDD
:1027A0001000190001F013F8002831D10122524223
:1027B000BF4B1E981F9900F0EFFF002837D1012270
:1027C0005242BC4B1E981F9900F0FCFF00283DD1DF
:1027D0000022B94B1E981F9900F0F4FF002850D139
:1027E0000022B64B1E981F9900F0D6FF002848D152
:1027F000002200231E981F9900F0CEFF002850D120
:1028000000239846229B5B0500D4B6E0002458E0E4
:10281000229B0393219B029303230193A84B0093D4
:102820004B465A4607990698FFF7F2FB0EE1229BAA
:102830000393219B029304230193A24B00934B46E5
:102840005A4607990698FFF7E3FBFFE00423229A14
:102850001A4022990B4210D09B4B002A0FD0042221
:102860002299039121990291019200934B465A4675
:1028700007990698FFF7CCFBE8E0944BEDE70322BD
:10288000EEE7229B0493219B039302971E9B1F9CC0
:10289000009301944B465A4607990698FFF768FD46
:1028A000D4E01E9A1F9B0020002100F002FF1E9022
:1028B0001F9101239846A5E70CAB30221A55013F22
:1028C00001341F2C01D8092FF6D81E981F9900F04B
:1028D000A9FF050000F08EFF02000B001E981F9953
:1028E00000F0E7FE7A4BFA009B181A685B680A92C0
:1028F0000B9300F00EFF0890099100F0B7FF06005F
:1029000000F074FF02000B000898099900F0D1FE56
:102910000890099100226F4B00F054FF00282ED040
:102920000136300000F062FF02000B000A980B999C
:1029300000F038FF002801D001350026002F2CD1EF
:10294000280000F057FF02000B001E981F9900F0AE
:10295000B0FE06000F0000225E4B00F01DFF0028B5
:1029600046D100225B4B3000390000F02BFF0028DD
:102970003ED1EB073CD501353AE0062746E7002279
:10298000544B0898099900F007FF0028D6D1002E73
:1029900001D0F307D2D50136D0E7AA461F2C11D8B3
:1029A000013F0A21300000F041FC651C30310CABC6
:1029B00019550A21300000F039FC092E0ED9060005
:1029C0002C00EBE755461F2C0CD87B1E002F09D09E
:1029D0000CAA302111551F000134F4E72B00554695
:1029E0001C00F0E71F2C03D80CAB2E221A55013423
:1029F0001F2C10D80A21280000F0F0FB661C303193
:102A00000CAB19550A21280000F0E8FB051E01D087
:102A10003400EDE734000323229A1340012B1CD02D
:102A20001F2C06D84346002B32D00CAB2D221A5552
:102A30000134229B0393219B029301940CAB0093DE
:102A40004B465A4607990698FFF7E2FA15B0F0BCD4
:102A5000BB46B246A946A046F0BD219B002B13D031
:102A60004346002B02D10C3313420FD0219B013B74
:102A70002193190003E00CAB30221A5501348C422B
:102A8000CED21F2CF7D9CBE72199F8E72199F6E7A9
:102A9000229B5B0704D50CAB2B221A550134C8E7E7
:102AA000229B1B07C5D50CAB20221A550134C0E769
:102AB000FFFFEFFFFFFFEF7F65CDCD4165CDCDC1BE
:102AC000C4E90010C8E90010B8E90010C0E900101E
:102AD00070EB00100000E03FF0B5DE4657464E4672
:102AE0004546E0B593B082468B4690461193002947
:102AF00000D100E300275446119B1878002800D12C
:102B0000FCE2252809D07D1C43463A005946A047DF
:102B1000119B013311932F00EEE701331193002530
:102B2000119A11780B00203BD8B2102803D88300EB
:102B3000C248C3589F460B00303BDBB2092B2CD94F
:102B40002A292FD000230A93119B1A782E2A39D0D4
:102B500000239946119A1378683BD9B2122976D886
:102B60008B00B749CB589F4601231D430132119278
:102B7000D6E702231D4301321192D1E704231D43FE
:102B800001321192CCE708231D4301321192C7E7AD
:102B900010231D4301321192C2E711A8FFF726FA54
:102BA0000A90D1E71C9B1A1D1C921B68002B04DBAA
:102BB0000A93119B01331193C6E7022215435B422E
:102BC0000A93F6E78022D20015435A1C11925A78D4
:102BD0001300303BDBB2092B04D92A2A07D000238B
:102BE0009946B7E711A8FFF701FA8146B2E71C9BA7
:102BF0001A1D1C921B68002B04DB9946119B0133A4
:102C00001193A7E70023F8E780235B002B43511CB7
:102C1000119152786C2A01D01D0018E0C0239B004E
:102C20001D430131119112E080232B43511C11915E
:102C30005278682A01D01D0009E0C0231D430131EC
:102C4000119104E080235B001D4301321192119B1E
:102C50001878672816D8252826D30300253BDAB232
:102C6000422A21D89300774AD3589F4680239B005D
:102C70001D4301321192EAE780235B001D430132BC
:102C80001192E4E778280FD869280DD30200693A39
:102C9000D2B2012393406C4A13420FD11A0600D5D9
:102CA00003E25B0500D594E17D1C43463A0059469A
:102CB000A047119B013311932F001DE7782809D0FD
:102CC000622838D06F2838D0582838D010239D4338
:102CD0000A2600E01026582833D0692803D064283B
:102CE00001D00C2295436A0501D50122954369283C
:102CF0002AD0642828D0AA0500D5A7E0EA0500D587
:102D0000C0E06A0600D4D2E01C9A111D1C91116823
:102D1000FF220A4005950A9B04934B4603930296B3
:102D200000230193009243463A0059462000FFF7E2
:102D30004FFA070027E00226CDE70826CBE710264A
:102D4000C9E720221543C8E7AA0520D4EA0550D4D4
:102D50006A0666D51C9A111D1C911168FF220A4053
:102D6000D0171118414005950A9B04934B460393D5
:102D70000296D20F0192009143463A005946200034
:102D8000FFF726FA0700119B01331193B4E61C9A52
:102D9000073207218A43110008311C9111685368DA
:102DA0009C46DB170C930D930C9A0D9B100048402A
:102DB0000E90624653400F930E980F990C9A0D9BFC
:102DC000801A99410E900F9108950A9B07934B46E4
:102DD00006930496002305936346DA0F029200904F
:102DE000019143463A0059462000FFF74FFA070089
:102DF000C9E71C9A111D1C911268D0171118414087
:102E000005950A9B04934B4603930296D20F0192B9
:102E1000009143463A0059462000FFF7D9F90700D0
:102E2000B1E72A0605D51C9A111D1C910023D25E1C
:102E300096E71C9A111D1C91126891E7D0E90010C9
:102E400014EA001060EA0010419000001C9A07325A
:102E500007218A43110008311C9108950A9B0793AA
:102E60004B46069304960023059302935368126819
:102E70000092019343463A0059462000FFF706FAB4
:102E8000070080E71C9A111D1C9105950A9B04936D
:102E90004B46039302960023019313680093434625
:102EA0003A0059462000FFF793F907006BE72A061E
:102EB00006D51C9A111D1C9112681204120C29E7E8
:102EC0001C9A111D1C91126824E746281AD01C9BDD
:102ED0000733072293431A0008321C9204950A9A7A
:102EE00003924A4602921A685B6800920193434635
:102EF0003A0059462000FFF745FC0700119B0133BB
:102F00001193F9E520231D43E1E7672801D0472805
:102F100002D180231B011D43452801D0472801D140
:102F200020231D431C9B0733072293431A000832BA
:102F30001C9204950A9A03924A4602921A685B68A8
:102F40000092019343463A0059462000FFF710FAD9
:102F50000700119B01331193CEE502231A002A408A
:102F600092462B421FD001251C9B1A1D1C927A1CD5
:102F70009146187843463A005946A0475346002BDD
:102F800016D1119B013311934F46B5E5561C4346AC
:102F900059462020B8472B0032005D1C9C42F5D8D2
:102FA0003C001700E0E701233A0027000A9CF4E701
:102FB0004A46A1460A9C06E0571C43465946202033
:102FC000C84735003A006E1CAC42F5D84C469146D5
:102FD000D7E71C9B1A1D1C921E684B46002B00D184
:102FE000013B310001E0013113000A78002A02D0D0
:102FF0005A1E002BF7D1891B10918023DB002A0079
:103000001A4092461D4203D0494501D94B461093C0
:1030100002231A002A400B922B4205D03A00574651
:1030200023004C46994620E03A00109B5F46B34689
:10303000260006E0541C434639002020B0472B00F0
:1030400022005D1C0A999942F4D834005E46BB46C2
:103050001095574623004C46994606E01C00013661
:10306000551C43465946C8472A003078002804D0EA
:10307000002FF4D0631E002CF0D117004C460B9BA0
:10308000002B03D1119B0133119335E50A9F109B4F
:1030900006E0561C434659462020A0472B0032002C
:1030A0005D1C9F42F5D81700ECE721232B431C9AA7
:1030B000111D1C9112680593082304934B4603933A
:1030C0001023029300230193009243463A0059468D
:1030D0002000FFF77DF80700119B013311930BE5EA
:1030E0007D1C43463A0059462520A047119B0133D9
:1030F00011932F0000E50B4B9A46FBE4A24647458F
:1031000002D343465A1E00E03A0043465946002087
:10311000D047380013B0F0BCBB46B246A946A04623
:10312000F0BDC046DD1F00100EB430B584B0010004
:1031300007AC08CC03940122054D009452422800AC
:10314000FFF7CAFC04B030BC08BC03B01847C04647
:10315000D51F001000B585B00290039101210448ED
:10316000009313004A4202A9FFF7B6FC05B000BD68
:10317000DF1F001001480421014B18476013002095
:10318000A531001010B5010018231B8814221088E7
:10319000984710BD10B5010018231B88162210880F
:1031A000984710BDF0B5C64600B507000E000025D3
:1031B0000123984600E00135B5420AD2AC003C1923
:1031C0002068FFF7DFFF20600028F4D10023984635
:1031D000F1E7404680BCB846F0BD0000124A936F4C
:1031E0009B0815D29066D166002905D0FFE7FFE75E
:1031F000FFE7516F106F704704B580210906C217B1
:103200005140002800D0C8430AF00AFE002104BD46
:10321000F0B5146E556E576F166FFFF7E3FF146627
:10322000556657671667F0BD000000D0114A936FCE
:103230009B0813D210665166002905D0FFE7FFE70F
:10324000FFE7516F106F704704B5002801D00020D0
:10325000C0430AF0E5FD002104BDC046F0B5146E80
:10326000556E576F166FFFF7E5FF14665566576783
:103270001667F0BD000000D094464E4A926F920847
:10328000624601D230E0C046F0B54A4EB56F6D08D7
:10329000FCD3346E756E776F366F00F025F8944668
:1032A000444A14665566576716676246F0BDC046C5
:1032B0009446404A926F9208624601D258E0C04656
:1032C000F0B53C4EB56F6D08FCD3346E756E776FFC
:1032D000366F00F04DF89446364A146655665767C7
:1032E00016676246F0BDC046002B24DB11D00029D2
:1032F0003EDA00B5C943404200D1013100F038F850
:10330000C943404200D10131DB43524200D1013375
:1033100000BD002AEBD1002801D1002905D00020F2
:10332000C90FC90701D1C043410800B50AF048FDE3
:103330000022002300BD00B500290ADBDB43524216
:1033400000D1013300F014F8C943404200D10131EB
:1033500000BDC943404200D10131DB43524200D19C
:10336000013300F005F8DB43524200D1013300BDC8
:10337000002923D1002B18D1002A0CD0BC460D4FB8
:1033800038667A6600210023FFE7FFE7FFE77A6FE0
:10339000386F67467047002801D00748010000B524
:1033A0000AF00EFD0022002300BD02000B000020E9
:1033B00000217047000000D0FFFFFFFF002B00D06E
:1033C000BFE0130C28D1002AE7D080B4114F396632
:1033D0007A66FFE7FFE730B4040C7B6F396F1B049C
:1033E00023433B667A66FFE7FFE7FFE7C04684B208
:1033F0007B6F3D6F1B0423433B667A66FFE7FFE765
:10340000C04600232C042D0C7A6F386F00196941D7
:10341000B0BC7047000000D0F0B594460025140EF3
:1034200001D112020835140F01D112010435940F95
:1034300001D192000235D40F01D152000135D40BD5
:103440000134254F7C66254C3C660E0C93B2FFE799
:10345000FFE7FFE73C6F6643360C7703BE467343D6
:10346000DF0B5B04C01AB941130C7343DB18C91A94
:10347000CE086643360CB64493B273431F0F1B014C
:10348000C01AB941130C73431F0B1B05C01AB94175
:10349000860D8F023E436643360C092D24DB520A0B
:1034A0007243801A7703460A6643360C16235B1B69
:1034B000DE40DF40BF1964466643821B7046043518
:1034C00006330100D940A840C01900D30131A242FF
:1034D00006D20023F0BD0000000000D0FFFFFFFF78
:1034E000121B0130F3D3F1E709277F1BFE4064462E
:1034F000A2B27243801A00D20139220C7243130C1B
:103500001204821A99410B007046043513370100EA
:10351000F940A840801900D30131002B02D1A2420A
:103520000AD2F0BD013000D30131121BFAD2013BA7
:10353000F8D1A24200D2F0BD013000D30131121BFC
:10354000F7E7F0B51C0C00D080E00CB400251C0A95
:1035500004D11B02160E3343120208351C0B04D192
:103560001B01160F3343120104359C0B04D19B0041
:10357000960F334392000235DC0B02D192185B4167
:1035800001351C00971864410134464F7C66464C57
:103590003C660E0CFFE7FFE7FFE7C0463C6F664363
:1035A000360C7703BE4697B27743C01B00D2013971
:1035B000C01B00D201399FB27743C91BC91B170C2E
:1035C00077437E04FF0B801BB941CE086643360C5F
:1035D0000C2D33DBB644120B1F053A431B0B97B27D
:1035E0007743C01B00D201399FB27743C91B170C28
:1035F00077433E043F0C801BB941860D8F023E434A
:10360000664329277F1BFE400C3D7746AF40BF191C
:1036100030BCA2B2ABB272437343801A9941220C00
:103620007243130C1204801A994102000B000137F7
:10363000001BA941F9D2781E0021F0BD0C277F1B89
:10364000FE4077467F0BAF40FF19E0E700245D1C8A
:1036500007D0144F7D663966FFE7FFE7FFE7FFE716
:103660003C6F95B29EB265436643401BB141150C59
:103670001E0C6543664336042F0C3E432D04401B4D
:10368000B141994204D202000B0020000021F0BD9C
:1036900001D19042F7D3801A994101349942F2D373
:1036A000F6E70000000000D0FFFFFFFF4840414068
:1036B000484018B41B4B5B68FC46019308BD04DF0F
:1036C0008739001018B4174B1B68FC46019308BDDE
:1036D00000DF913900109446134A926F920809D284
:1036E000624618B40F4BDB68FC46019308BD0CDF43
:1036F000493C00100C4AF0B5146E556E576F166FAA
:103700006246FFF7EEFF084A14665566576716676C
:10371000F0BD18B4034B9B68FC46019308BD08DF5D
:10372000ED3A0010081F0020000000D0FFB5504007
:103730004240504059404B40594000E0FFB5154FC2
:103740004C00640D03D0BC4204D10C0314D80020FB
:10375000090D09055C00640D03D0BC4204D11C03B3
:103760000AD800221B0D1B0501264B4009D44B40F3
:1037700003D58B4200D18242FFBD9942FCD19042D9
:10378000FFBD0B43DB1803431343F5D0C94349186E
:10379000FFBD0000FF07000000B5FFF7CFFF80412D
:1037A00000BDC04600B5FFF7C9FF01D9002000BD2C
:1037B000012000BD00B5FFF7B9FF01D9002000BD11
:1037C000012000BD00B5FFF7B1FF804100BD012021
:1037D00040054A00121804D85A00121801D80020D7
:1037E000704701207047002070470000002100282A
:1037F00005D17047C1174840401AFAD0C90713B520
:10380000064B1B6898470CBC441CA2401005120BC9
:103810000349091B09051943114310BD0820002065
:103820001F04000010B54C00620D8023D218DB008D
:10383000D21A5B057E2A10DD9E3A13DACC170903F3
:10384000490819435242D140640001341532202AFC
:1038500005DAD0400843604310BD002010BD084683
:10386000604310BDC80FC018013810BD18B4044B18
:103870005B6AFC46019308BD24DFF93D001000009F
:10388000081F002070B513231C78012C14D0012CC4
:1038900014DC022C02DC1F4B1F4A93641F48FFF705
:1038A00071FC1F4B186070BD1A491B4A980081506B
:1038B00001331F2BF8D9EAE70023FAE71948FFF78D
:1038C00069FC05001848FFF765FC023803789B0087
:1038D0007F2B19DD10488022290000F0C1FB022C4B
:1038E000D7D1124B1A88B5231B029A4209D1104B2B
:1038F0001A88104B9A4204D10F4B1A880F4B9A42E8
:10390000C7D00020FDF79EFF0D4B0E4A0E48322116
:10391000FDF7FEFE4D390010081F00204C3300005B
:103920000820002053440000534600005438000093
:10393000D8380000494600009C3800005946000075
:10394000C0EB001068EC001020EC001007B56046DA
:10395000002800D100BE01880A0A0230DF2AFAD10D
:10396000C9B2820804D3028840880004104300E0F2
:103970000068024A5050039007BD0000081F002055
:103980000FB403BC0CBCF0B50124E407634000E0B5
:10399000F0B50C0DCF0F661E3605891B640503D3E9
:1039A000C943404200D30131640D03D0661CF60ABE
:1039B00007D0E41B00207F00791C89078912803C16
:1039C00024031D0DDF0F6E1E36059B1B6D0503D3F3
:1039D000DB43524200D301336D0D03D06E1CF60A57
:1039E00007D0ED1B00227F007B1C9B079B12803DB4
:1039F0002D032F1B661B58D4A446202E46DA2037F1
:103A00001400BC401D00BD40F24033412A438018E1
:103A10005941CB0F05D0C943C043002264425041F5
:103A2000514162464D0D28D10D0D07D100281FD000
:103A3000241940414941013A0D0DF9D0640006D3E3
:103A4000013000D30131002C01D140084000013A7F
:103A50000BD4941CE40A04D112051144DB07194469
:103A6000F0BDD907204B194300E0D9070020F0BD75
:103A70000029DDD1002CDBD1F0BD0132C6074008A2
:103A8000CD0728434908002EE1D0D9E73C2E29DA9A
:103A9000203E40371400BC4000D00124F2401443C3
:103AA0001A00BB401C43D317ACE7AC46202F08DA02
:103AB00020360400B4400D00B540F8403941284399
:103AC000A5E73C2F0CDA203F40360400B44000D07C
:103AD0000124F84004430800B1400C43C117EAE751
:103AE00010001900002494E70000F07FF0B50C0DE1
:103AF000661E3605891BE60A6405640D02D0651C46
:103B0000ED0A04D0002001210905803C2403A446CD
:103B10001C0D671E3F05DB1BE70A6405640D02D020
:103B2000651CED0A04D0002201231B05803C240300
:103B30007740644497B484B296B27443070C7E43D2
:103B4000150C6F4380B26843361802D3012000047D
:103B50003F183004350C00197D41844688B29AB272
:103B600050430C0C62431F0C7C438EB27E4392196F
:103B700002D301263604A4191604170C361867411F
:103B800001BC81B29AB25143040C62431B0C5C43EA
:103B900080B25843121802D30120000424181004E4
:103BA000130C401863412D185E410020474106BCAC
:103BB00088B293B258430C0C6343120C544389B23D
:103BC00051435B1802D301210904641819041A0C2B
:103BD000091862416D1856410020474118BCF9028E
:103BE000720D1143F0026A0D1043ED020A0D03D16C
:103BF0006D1940414941013B124E9B1B7600B34277
:103C00000ED26D0007D30130002671416646354360
:103C100001D1400840001B05C918E4072144F0BD4C
:103C20000BDA013306D1013004D101314F0D01D03F
:103C30004908F2E7E1070020F0BD01363105002018
:103C4000EBE70000FF030000F0B51C0D671E3F0509
:103C5000DB1BE70A6405640D02D0661CF60A04D07B
:103C6000002201231B05803C2403D0252D060026BD
:103C7000F6432E661E096E66CE0FF619B44649004D
:103C80004F0D02D07E1CF60A03D000200021403FD9
:103C90003F033E1BB600B444013F7F05C91B4908E2
:103CA0002E6F013676089C02950D25437543ED1362
:103CB0007543AD1301356D10F603761B0CB4CC02C1
:103CC000450D2C43A2B2B3B25A43270C7B43350CAB
:103CD0006F43A4B26C431B1902D3012424043F197F
:103CE0001C041D0CA4187D4124196D41009A91B249
:103CF000ACB26143170C7C432B0C5F4392B25A4326
:103D0000A41802D301221204BF182204230C521853
:103D10007B41019C6C431B19520ED9010A4344019B
:103D2000A01A81B2B2B2514303145A43360C734302
:103D300087B27743D617D21900277E4136049B19E4
:103D40001704160C7F185E417316ED18F301002658
:103D500080337541A90F06D16400690AE8055B0A42
:103D6000184309D22FE00422944480337541A90AF4
:103D7000A8059B0A184326D3404149412404009AD0
:103D8000019B0D005543641B4343E41A95B286B270
:103D90007543170C7E43030C5F4392B25A43B61827
:103DA00002D301221204BF183204330C52197B4192
:103DB00052429C41002C02D4002201305141400863
:103DC000CA071043490802B06246D7079210084B51
:103DD000D218084B9A4203D212058918C919F0BDAE
:103DE0000020002A01DC3900F0BD01331905F5E798
:103DF000FD030000FE070000002200B5203200F0A5
:103E000004F8080000BD000000220B150AD410B50C
:103E1000944600F031F81414013400DA0021CB1775
:103E2000144C20470020002170476244343A0CD4DF
:103E30000C2A07DA04009140904052422032D440CC
:103E4000214310BDD843D94310BD203207D40C46BE
:103E50009440524220321141D040204310BD08000E
:103E6000C917203203D452422032104110BD18002D
:103E7000190010BD2B3E00100A0DCC0F531E1B0560
:103E8000C91A520503D3C943404200D30131520D30
:103E900003D0531CDB0A07D0121B00206400611CF6
:103EA00089078912803A1203014BD21A7047000029
:103EB000FF03000051434343C9188C46110C83B2E1
:103EC0004B4310B4040C614392B280B2504362433E
:103ED0001C041B0C001910BC59411304120CC0180F
:103EE000514161447047000070B513231E782A4881
:103EF000FFF750F90500012E11D0012E09DDAB1E90
:103F00001B789B007F2B40DD24488022290000F095
:103F1000A7F82348FFF736F9224B186070BD1F48F9
:103F20005422290000F09CF81F4B1A881F4B9A421C
:103F30001CD1A7239B011A881D4B9A4216D11D4BF9
:103F40001A881D4B9A4211D11C4B1A8894239B014D
:103F50009A420BD11A4B1A881A4B9A4206D11A4B25
:103F60001A681A4B9A4201D1152307E01848FDF749
:103F700069FC184C094A99008C5001331F2BF8D961
:103F8000144B064A1362D361B7E7134B134A144824
:103F90004221FDF7BDFBC046534600000C20002027
:103FA0004C33000008200020EE290000C40F000060
:103FB000C20D0000962B0000C0B50000182B0000B9
:103FC000CC2A000010B50000FC2C000051ED8764E5
:103FD0006CE50010E53F00107CEC0010F8EC0010E0
:103FE000B0EC001007B56046002800D100BE018883
:103FF0000A0A0230DF2AFAD1C9B2820804D3028841
:1040000040880004104300E00068024A50500390CA
:1040100007BD00000C20002010B5040008F03CFB98
:10402000002804D00419034B9C4200D810BD02485C
:10403000FDF708FC000004200CED001010B508F09E
:1040400035FB10BD01480421014B184770130020B7
:10405000A5310010014B1B681847000070130020A9
:10406000014B5B68184700007013002010B5FFF784
:10407000D3FF10BD10B5FFF7E1FF10BD10B5FFF77E
:10408000DDFF10BD10B50300080011001B68984744
:1040900010BD0000F8B507000D001600437C002B92
:1040A00002D0002400200CE003681100280098478B
:1040B0002DE03B7C10E03B68154802219847601CCE
:1040C0000134B44214DA002CF3DD2B19013B1B78C8
:1040D0000D3B5A425341DBB22A5D0A2AF0D1002B34
:1040E000EED1A042E7DA3B68211A28189847E2E7A8
:1040F000B04203DA3B68311A28189847002E06DDD3
:10410000AD19013D2B780D3B5A4253413B74F8BD2C
:104110008CED001070B505000368002B16D00C4B19
:104120001C6805E0290004C92000FFF7B3FFE4681C
:10413000002C09D02368002BF9D0064B1B68002BFC
:10414000F0D0A342F3D1EDE700232B6070BDC04651
:10415000D01E0020D81E002070B505000C000B6892
:10416000802B05D023685A1C2260E418257170BD8D
:104170000800FFF7CFFFF5E7F0B583B007000E00AA
:104180000092019328E0A368002B04D0310038008E
:104190009847002827DCE468002C06D0134B1D68E4
:1041A000002DF0D0A542F6D1EDE701200021FCF76B
:1041B0005FFF0099019A0E4B5B6A9A4209D80C483E
:1041C000806A88420BD29A4201D0012302E0002388
:1041D00000E00023002B04D1064B1C68DCE7012320
:1041E000F8E70120404203B0F0BDC046D81E0020D1
:1041F00000400540D01E002010B582B0D0231B0621
:1042000000241C57074801A909F01AFE002806D10E
:10421000019B9C4203D0034809F04AFE012002B0F2
:1042200010BDC046D81B002010B5024809F0C0FDE3
:1042300010BDC046D81B0020F0B5CE46474680B51D
:1042400083B006000D0090461C00FFF7D5FF8146A5
:104250006B1C05D0002C08D0194F1A4B1C6807E0C6
:10426000300009F025F80500F4E7174FF5E7E4689A
:10427000002C17D02368002BF9D0144B1B68002B9F
:1042800001D0A342F3D12A0031002000B8474346B1
:10429000002BECD06B46D91D0A230B7001222000A5
:1042A000B847E4E74B46002B07D16B1E9D41E8B2AF
:1042B00003B0C0BCB946B046F0BDFFF7B5FFF4E7A8
:1042C00085400010D01E002095400010D81E002010
:1042D00010B5030008001100002B05D1044B1A682B
:1042E0005B68FFF749FF10BD01204042FBE7C04675
:1042F00000E3001070B50D001400012807D1002361
:10430000002221002800FFF797FF200070BD012048
:104310004042FBE70C4B1A68130001E01A00DB680F
:10432000002B08D08342F9D1002903D1DB68D36088
:104330000023C36070470029FCD0002A01D0D06060
:10434000F8E7014B1860F5E7D01E002010B5064BCA
:104350001C6801E09847E468002C03D06368002BD8
:10436000F8D1F8E710BDC046D01E002070B505009A
:1043700008F09EFF04000023012201002800FFF73F
:104380005BFFFFF7E3FF200070BD000070B5A2B037
:1043900004000E00FFF730FF05008422002101A871
:1043A000FFF758FE09483300220001A9FEF7D2FEAC
:1043B000040001A8FFF7AEFEFFF7C8FF002D02D1F1
:1043C000200022B070BDFFF72FFFF9E75941001020
:1043D0000FB400B583B004A901C90191FFF7D6FF5E
:1043E00003B008BC04B0184710B500F085F810BD44
:1043F000F0B583B005000E0000240FE06B46D91D18
:104400000D230B700020002816D193699B06FCD465
:104410000B78136001300131F5E70134B44219DA49
:104420000D4B1A682F5D0D4BD31859424B410C4967
:104430005B005B5EBB42E1D06B46D91D0F70002074
:104440000028EAD193699B06FCD40B7813600130F5
:104450000131F5E703B0F0BD242100200080FCBF4E
:1044600020210020F0B583B005000E00002004E0FC
:104470006B4607331B7823703800B04215DA0E4BB9
:104480001A6893691024210019401C420DD1471C61
:104490002C186B46D81D0029EAD19369DB06FCD4A1
:1044A0001368037001310130F5E7002801D003B033
:1044B000F0BD0338FBE7C0462421002070B515008D
:1044C0001C000B4B1860FCF753F8002D06DA002C8B
:1044D00009DA08480121FFF71DFF70BD02212800FD
:1044E000FBF794FFF3E702212000FBF78FFFF0E7D3
:1044F000242100208013002010B5064B1B78064BAA
:104500001B78E1210123002249020448FFF7D6FF6E
:1045100010BDC046900E0110940E011000400340E3
:104520008023086810B5DB05984210D290420AD962
:104530005200904207D29A4203D3064A18000A60FA
:1045400002E010000A600130FFF790FD10BD024844
:1045500000F010FFFFFFFF3F54EF00100300006862
:10456000083310B5984201D0FFF784FD10BDC04656
:1045700030B583B0150004000A0001910F290ED850
:104580000068002A06D0012A11D02900FFF762FD39
:10459000019A206800236260835403B030BD00227A
:1045A00001A9FFF7BDFF019A2060A260E9E705704D
:1045B000019A2068EEE7C0461EB400F091F81EBCD8
:1045C00009F036FCF0B5C64600B5984603780C00F5
:1045D00082B0472B1CD00020274D2B6801909B6890
:1045E000280098470126002803D0019B01361B684C
:1045F0000193236829001F692000012301AAB847FD
:10460000002823D10026300002B080BCB846F0BD9F
:1046100043784E2BDFD18378552BDCD1C378432BE5
:10462000D9D10379462B1BD00379432BD3D14379BE
:104630002B2BD0D183792B2BCDD1C379012BCAD889
:1046400008D00300203B1D685830C6E74246019B56
:104650001360D8E7203800680300783B1D68BCE78A
:1046600043794F2BE0D18379522BDDD1C379002BD5
:10467000DAD11800014DB0E788EF001080EF00108C
:1046800010B5040000F0FAF822002378203A472BF6
:1046900005D08368002B20D18260012010BD637893
:1046A0004E2BF6D1A378552BF3D1E378432BF0D1E1
:1046B0002379432BEDD163792B2BEAD1A3792B2BD3
:1046C000E7D1E379012BE4D8D3690133D361012B1E
:1046D000E3D1836893618260DFE700F033FCC0467A
:1046E00010B500F0CBF88368002B2ED020229A5C06
:1046F000472A04D0002282602033180010BD263AD9
:104700009A5C4E2AF6D12C3A9A5C552AF2D1323A6A
:104710009A5C432AEED11F3A9A5C432AEAD11E3AA8
:104720009A5C2B2AE6D1053A9A5C2B2AE2D1043A0C
:104730009A5C012ADED8DA69013ADA61002ADBD113
:104740009A69826000229A61D6E700F0FBFBC046BE
:1047500070B5040000F092F8220023780568203A32
:10476000472B04D0002D2BD10260280070BD637848
:104770004E2BF7D1A378552BF4D1E378432BF1D10D
:104780002379432BEED163792B2BEBD1A3792B2B00
:10479000E8D1E379012BE5D85369002B0DDB013318
:1047A00053614368013B4360954201D0156102604B
:1047B0002000656A09F04CFBD7E70121CB1AEFE72F
:1047C00000F0C0FB10B500F055F80368002B09D0CD
:1047D00020229A5C472A06D000222033026018006B
:1047E00009F00EFB10BD263A9A5C4E2AF4D12C3A01
:1047F0009A5C552AF0D1323A9A5C432AECD11F3A9E
:104800009A5C432AE8D11E3A9A5C2B2AE4D1053AF5
:104810009A5C2B2AE0D1043A9A5C012ADCD85A69C6
:10482000002A08DB511E012A0CD04A1C01D0596114
:10483000D8E700F087FB511C0132F8D11A690260F9
:104840005961CFE71A6920330260180009F0D8FADD
:10485000C8E7C0467047C0467047C046004870472A
:104860006CEF001010B504000421FFF707FC2000D6
:1048700010BDC04600487047F81C00200048704733
:10488000F81C0020F8B5DE46454657464E468B4696
:10489000E0B50500502825D00F2028400C2800D96D
:1048A00075E03C4C800020588746547810782402EC
:1048B0000443907800042043D47824060443101D58
:1048C000002C08D070262E40102E00D193466DB2D9
:1048D0005C44002D0BDB1C60F0BCBB46B246A94615
:1048E000A046F8BDD01C0322904310C8F3E724680B
:1048F000F1E75478107824020443907800042043B0
:10490000D4782406044310000830D9E7547810788E
:1049100024020443901CD3E7547810782402044303
:1049200024042414901CCBE77F2190460024002708
:10493000894646463178701C4E460E40BE40344390
:104940004EB280460737002EF3DB1F2FB8D84E0635
:10495000B6D50126BE4076423443B3E700218846EF
:104960007F311700002489463E00317801378A469E
:104970004946564631404646B1400C4307218C46D5
:1049800051464EB23800E044002EEDDB98E707F0C8
:1049900073FCC04620F00010020010B50800FF2A8A
:1049A00015D070231340302B17D004D8202B07D1FB
:1049B00009F0F6F903E0402B0BD109F059FA10BDCC
:1049C000202B02D86023134201D007F055FC0020B1
:1049D000F5E70020502BF2D0F7E709F019FAEEE7DF
:1049E000F8B505000E0014000020002D02D02800AC
:1049F00009F03EFA2060771C3678FF2E28D16060DF
:104A00003B78781CFF2B32D01023002500217F2615
:104A100023753200037801301A408A405BB2154397
:104A20000731002BF5DB4519E560002200257F26C4
:104A300003780130637531000378013019409140EB
:104A40005BB20D430732002BF5DB45192561F8BD3C
:104A500029003000FFF7A0FF3A000100231D3000BD
:104A6000FFF710FF07003B78781CFF2BCCD1002507
:104A70002375D9E7F0B5DE46454657464E46002336
:104A8000E0B593B0089303338B4690460340012B67
:104A900016D0022B0FD14146584609F0A1F909243E
:104AA000002800D10824200013B0F0BCBB46B24659
:104AB000A946A046F0BD002B00D190E007F0DCFB3A
:104AC00008231A000240034200D197E002231A4350
:104AD00002920C910CAD00230C220021404600955F
:104AE00009F076F9404609F0EBF903900028D2D09E
:104AF0002A0003994046FFF773FF41460600287DD0
:104B0000FFF74AFF0BABA8600F2200939A460021E3
:104B10000023404609F0B4F901220B9B9343013B6B
:104B200099462B699E4200D3BFE07F276C7D002110
:104B30002000FFF731FF3200010009AB2000FFF732
:104B4000A1FE6C7D060000212000FFF725FF32004A
:104B500001000AAB2000FFF795FE6C7D06000021E6
:104B60002000FFF719FF5346010032002000FFF735
:104B700089FE0024002103003A001B7801301A400E
:104B80008A405BB2060014430731002BF3DB2B682D
:104B9000099A9B184B451AD9029BDB0728D500239D
:104BA0000024049353460D22009300210023404625
:104BB000089D09F065F95A460B9B946213625B46A7
:104BC0005562039A0624DA62049A1A636BE70A9A1A
:104BD0009B184B4574D82B698342A7D8DCE70007A4
:104BE00000D558E701230CAD02935B460C9372E7A6
:104BF0000823029A134260D000F0A4F90CAD0C6AAD
:104C000000230D2200214046009509F039F90C9B44
:104C10009C4202D002230293E7E75B460C220C93EE
:104C2000002100234046009509F0D2F85A465B4621
:104C3000126B9C6A0492DB6A002A3ED00393002C1C
:104C400061DB0BAB03259A465B460B935346002270
:104C5000002100934046002309F0BAF85346012290
:104C600000210093404600230B9409F0B1F853460D
:104C70000F22002100934046002309F001F901238F
:104C80000B9A00211340049A404613430B9353465A
:104C90000F220093002309F09BF80724022D00D077
:104CA00001E75846FFF7ECFCFDE6029B1A4200D0F4
:104CB00075E70823029A13429ED1584607F024F95B
:104CC0000B9B002B00D1E6E66A689B180493002C2E
:104CD0003AD1002B00D1DEE6029BDB0700D5DAE6F5
:104CE0000823029A13420BD10225ADE7079B984691
:104CF000059B002B00D1CEE6029BDB0700D5CAE660
:104D000000240225A0E70BAB9A462A0003994046EF
:104D1000FFF766FE4146287DFFF73EFEE343E96864
:104D20009B00A860C9180B68002B05D00023013335
:104D30009A008A58002AFAD15A469362042303251E
:104D4000D062136351637FE72B69049A013C1B19FE
:104D5000002A00D19FE6002B00D1D8E0029908225A
:104D60000800104006900A4200D1BDE059463F328B
:104D70000A7007324A7007328A70123ACA700332D8
:104D80000A7109324A7103328A710022CA71002203
:104D9000059242467F27A9460792002400211A0067
:104DA00010783A0002408A400133144342B21D0099
:104DB0000731002AF3DB1F2906D84022024203D024
:104DC0003F3A8A4052421443002600213A001878A4
:104DD000013302408A40164342B20731002AF5DB14
:104DE0001F2906D84023034203D03F3B8B405B4240
:104DF0001E43002C0FD011DC069B002B3ED04A46F0
:104E0000E343D2689B009B58002B78D0002E00D142
:104E10006CE7AB19C1E701230593F7E74B46187D13
:104E2000FF2854D007230340022B4DD020D9032B59
:104E300021D0042B00D041E6E3005B424A46D26811
:104E4000D2184B4699685346FFF71CFD0B99002971
:104E500006D00022584608ABFFF7B4FB0028D5D097
:104E6000079B9846029BDB0700D59BE60325EBE6F4
:104E7000002B00D022E6A3005B42DFE7089B0F9ADD
:104E80000B93E34390469B009844434619680029DE
:104E900049D05B465246AB46A2461D004446B0464A
:104EA000160003E061680434002912D033000022A8
:104EB00028006118FFF786FB0028F3D02B00B246CC
:104EC0005D4646469B46A1E763005B42B6E700238A
:104ED000B4E7079B5446AB469846B2464D46029B04
:104EE000DB0700D55EE610E75A46D1795832012932
:104EF00001D008924BE7783A1268089247E7079B7F
:104F00009846029BDB0700D54CE600F027F8029B91
:104F1000DB0700D5BFE5029A082314001C401A42A3
:104F200000D0EDE6E0E6079B4D469846D7E7FFF751
:104F30000FFC61E610B5804707F09EF9FFF708FC0B
:104F400007F09AF9024B10B51868FFF7F3FFC04657
:104F50009813002010B58047FFF7F4FF024B10B5FF
:104F60001868FFF7F7FFC04694130020014B18683C
:104F70007047C04698130020014B18687047C04620
:104F80009413002010B5012812D80B00283B1A6892
:104F9000501E1860012A00D010BDDB6858310C008B
:104FA000002B01D008009847200006F067FFF3E7C8
:104FB00028394869FFF7BEFF70B505000026803D1F
:104FC000EA602E60A9600400FFF7D6FF2861FFF7B2
:104FD000CDFF23004722583B68611A7007325A7090
:104FE00007329A7022004323553A13705370183BCE
:104FF0009370D370024B513C280026702B6370BD18
:10500000854F001070B504000D001600FFF736FC48
:10501000436832000133290043602000FFF7CCFFD2
:10502000012303602830040008F03AFF2000FFF756
:105030008FFBFFF787FFC04610B5FFF71FFC4368E3
:10504000046801334360002C0CD02023E35C472B21
:105050000AD0002303602034200008F019FF20004C
:10506000FFF776FBFFF76EFF263BE35C4E2BF0D19C
:105070002C3BE35C552BECD1323BE35C432BE8D17A
:105080001F3BE35C432BE4D11E3BE35C2B2BE0D1C5
:10509000053BE35C2B2BDCD1043BE35C012BD8D834
:1050A00063695B426361D6E710B50400034B0833C4
:1050B000036000F0BBF9200010BDC04688F000106E
:1050C00010B50400054B0833036000F0AFF9200071
:1050D0000C21FEF7D3FF200010BDC04688F0001061
:1050E000F0B583B01E00089B05000F00140093422A
:1050F0000AD0A868089A036800921D6A220033004B
:105100003900A84703B0F0BD310000F069F800286D
:10511000EFD00620F6E7C046F0B5C64600B50D0054
:1051200084B01900060090461F0000F059F8041ED4
:1051300018D10A9B0C9A934231D00D9AB06829007D
:10514000036803920C9A02920B9A01920A9A0092B7
:10515000DC6942463B00A0470400200004B080BC4C
:10516000B846F0BD0D9B0A9A1A6042461A71002D8E
:105170000EDB0A9B0D9A9C460C9B65445D1B6B42A3
:105180005D4105236D422B40013300249371E4E718
:1051900000240235E1D101230D9A9371DDE730003F
:1051A0000B9900F01DF80028C7D042460D9B5A719C
:1051B000D3E7C046F8B507000C0015001E0000F04C
:1051C00071F9002806D1B8682A00036821009F6998
:1051D0003300B847F8BDC0467047C046002070474E
:1051E00010B5814211D0406803782A2B0BD0496852
:1051F0000B782A3B5A425341C91808F015F843422C
:105200005841C0B210BD0020FCE70120FAE7C046BB
:1052100070B53D4B82B01A78002A44D101221A7031
:1052200006F002FF002834D04468002123782A3B8E
:105230005A425341E41801235B42002201932000AB
:1052400001AB06F03BFD314D06002B683022DB68D8
:1052500001212F4807F0E0F9019B002B13D02B68A8
:105260002000D96807F052F82B680222DB68012180
:10527000284807F0D1F9019B002B02D13000FEF73E
:10528000DDFEFFF7D9FE2B683000D96807F03EF845
:10529000EAE71E4B2D221B6801211F48DB6807F03F
:1052A000BBF906F0E9FF194B1D221B680121DB68E1
:1052B0001A4807F0B1F906F0DFFF0C00012919D1F7
:1052C000FFF746FA03689B6898472B6806000B2295
:1052D00021001348DB6807F09FF92B683000D9687C
:1052E00007F014F82B680A20D96806F0CDFFFFF705
:1052F00069FAD6E7FFF72CFAFFF764FAD1E7FFF770
:1053000061FAFFF759F9C046282100209C130020BC
:10531000ECF0001020F1001024F10010CCF000108F
:1053200054F10010042010B506F092FD024B034A20
:1053300003490360FFF766FE94F10010AD530010BF
:1053400070F1001070B50500082006F081FD2900FD
:10535000040006F003FF2000044A0549FFF752FE4F
:10536000200006F08BFDFFF727F9C0464DC0001066
:105370009C0A011070B50500082006F069FD29009F
:10538000040006F02FFF2000044A0549FFF73AFE0B
:10539000200006F073FDFFF70FF9C0468DC0001026
:1053A000A80A01100048704760F1001010B5040011
:1053B000034B08330360FFF74DFA200010BDC046D1
:1053C0008CF1001010B50400054B08330360FFF7A3
:1053D00041FA20000421FEF751FE200010BDC04616
:1053E0008CF10010002330B51400102285B000931A
:1053F00001930393036802929D6922686B46A84754
:105400006B461A79062300201340062B02D1009B1D
:105410000130236005B030BD009B981A431E9841AF
:1054200004234042984306307047C04610B504003C
:10543000034B08330360FFF7CFFE200010BDC046CA
:10544000D0F1001010B50400054B08330360FFF7DE
:10545000C3FE20000821FEF711FE200010BDC0464B
:10546000D0F1001070B516001D00069A049B0400D0
:1054700093420ED029002000FFF7B2FE002806D08C
:10548000079B049A1E711A600123079A93710020EA
:1054900070BD0599FFF7A4FE0028EBD0079B5E7155
:1054A000F5E7C04670B515001C00FFF799FE00280F
:1054B00004D00823E360023B2560237170BDC04621
:1054C000F8B505000C0017001E00FFF789FE002844
:1054D00007D1032E05D823683A00290020005B6914
:1054E0009847F8BD70B5050031291FD8282939D84B
:1054F0000A292FD90C0001200B3CE4B2A040244C17
:10550000204238D0002A23D06C69A86984421FDA6F
:10551000A60028693619B6008019002601344660B5
:1055200086606C610170C260036170BD0800343830
:10553000C0B21D280CD8012484402000154C204204
:10554000E0D1154C20421DD1D024A4052042DBD14E
:105550000020EAE7042915D90C00093C0020012CA1
:10556000E3D8CFE70C00293CE4B2082CF0D80B4874
:10557000A40000598746FF24A4032042C4D1084C4C
:105580002042E5D0002AE3D0002BBDD10020CCE79B
:10559000FE1F802F0711C701F82E000AFCF1001032
:1055A00001004000F8B5CE46474680B5C568060004
:1055B0002C786E2C27D0303CE3B2092B2ED8002358
:1055C0009846174B00279946013507E04B460A21BC
:1055D000181B0135FDF702FEB84212DBBB00DF19D4
:1055E0007F00F5603F192C78303CE3B2092BEDD9F0
:1055F0004346002B00D07F423800C0BCB946B046BD
:10560000F8BD0127F7E76B1CC3606C78303CE2B251
:10561000092A03D81D0001239846D2E70027EBE7AB
:10562000FFFFFF7F10B50400002908D1C3681A7876
:10563000002A01D1002010BD5A1CC26019786829C7
:105640000AD07629F6D12000FFF7ACFFE3681A787C
:105650005F2AEFD10133E3602000FFF7A3FFE36887
:105660001A785F2AE6D101330120E360E3E7C04600
:1056700010B5C3680A00197852290DD04F2901D0FE
:10568000100010BD2021C46A03340133C462C3601A
:105690000023FFF727FFF4E7C46A1F210234F4E771
:1056A00070B505000C1E15D08E2080211A4E4000CA
:1056B000C900A368012B0DDC2A588A420ADC013399
:1056C000A3602378512B05D89B00F3589F46E468CC
:1056D000002CEED170BD2469FAE7A22149006B5875
:1056E00001336B50E1688E26013276002800AA5102
:1056F000FFF7D6FF28002169FFF7D2FFAB59013B26
:10570000AB51E7E7E1680B78052BECD19C2040001A
:105710002B5801332B50E6E720F200100300002045
:10572000002B07D109E0DA68002A06D01B69013096
:10573000002B02D01A782F2AF5D0704710B5C36815
:1057400004001A785F2A09D15A1CC2605A785F2A6D
:1057500006D0FFF727FFC043C00F00E0012010BDB7
:105760000233C360FFF71EFF00280ADB0928F5DDBE
:10577000E36800201A785F2AF1D10133E360013039
:10578000EDE70020EBE7C046002806D108E000293D
:1057900008D000690139002803D003782F2BF6D0F8
:1057A00000207047C068FCE7F0B51400C646526898
:1057B0004B1CA5689B1807000E0000B5AB4213D820
:1057C000E568002D0DD1636820683200C0183900EB
:1057D000FEF746FC236862689B199D5463689B1919
:1057E000636080BCB846F0BDE268002AF9D1002DA4
:1057F00002D1022B0DD902356D00AB42FCD8290035
:10580000206807F0F7FA8046002804D02060A560E1
:10581000D6E70225F3E72068FEF710FC4346236035
:105820006360A3600123E360DBE7C0460278030006
:10583000722A12D0562A10D04B2A0ED00020442AA9
:105840000CD15B78243A190091434F2905D00122ED
:10585000773BDBB29A42404100E001207047C046EE
:1058600080235B00C35870B504000D00FF2B08D0E7
:10587000591C80225200A150E55482235B00E5545C
:1058800070BD0022C25486235B00C258043BFF2136
:10589000C358984794225200A35801210133A350C2
:1058A0000023E6E78822520003008058002814D025
:1058B00043681869CB68002B0CDB002806D109E08F
:1058C000002B08D00069013B002803D002782F2A62
:1058D000F6D000207047C068FCE7012108329950DB
:1058E000F8E7C046F0B5C64606000C0000B5002932
:1058F00012D01B4B012598461A4F2378082B0FD83E
:1059000042469B00D3589F46172B15D9164A183B81
:10591000DBB2DA4015420FD0002080BCB846F0BDA3
:105920002C2BF1D9323BDBB21B2B05D82A009A4035
:105930003A42F1D1012B05D03000E168FFF7D2FFE8
:105940000028EAD12469002CD7D1E5E721003000F6
:10595000FFF7A8FF0028DFD003782F2BDCD1DCE78E
:1059600068F300100100E30C01801000F0B5D6468A
:105970004F4646460500C0B508000C0007F098FCED
:1059800000282AD00022802392460D32FF32914611
:105990005B00043A9046EB5827180AE019000133DF
:1059A00080225200AB50013404326E54AE54BC42DB
:1059B00013D02678FF2BF1D15246EA544B46EA58D1
:1059C0004346FF21EB582800984794225200AB58D9
:1059D00000210133AB500123E2E7E0BCBA46B146F7
:1059E000A846F0BD10B5C36804001A78542A22D125
:1059F0005A1CC2605A785F2A1FD06E2A1BD0FFF74C
:105A0000D1FD411C17D4E3681A785F2A13D1013302
:105A1000E360A269636993420DDA9A002069D218A3
:105A20009200801800220133426082606361052386
:105A3000C160037000E0002010BD00210233E7E7E1
:105A4000F0B5D6464F464646C0B51F4B88B00A0053
:105A50000500190001A8FDF767FB01A807F028FC65
:105A600000282BD00022802392460D32FF3291462F
:105A70005B0001AC043A9046EB5827180AE0190085
:105A8000013380225200AB50013404326E54AE54C4
:105A9000BC4213D02678FF2BF1D15246EA544B4634
:105AA000EA584346FF21EB582800984794225200B9
:105AB000AB5800210133AB500123E2E708B0E0BC52
:105AC000BA46B146A846F0BD8CF3001070B504008C
:105AD000FFF768FD051E44DDE66863689B1B98427E
