:020000041000EA
:1000000000B5324B212058609868022188439860DF
:10001000D860186158612E4B002199600221596106
:100020000121F02299502B49196001219960352056
:1000300000F044F80222904214D00621196600F024
:1000400034F8196E01211966002018661A6600F04E
:100050002CF8196E196E196E052000F02FF8012189
:100060000842F9D1002199601B49196000215960AB
:100070001A491B48016001219960EB211966A021F2
:10008000196600F012F800219960164914480160C1
:100090000121996001BC002800D000471248134993
:1000A000086003C880F30888084703B5996A0420EC
:1000B0000142FBD001200142F8D103BD02B5186610
:1000C0001866FFF7F2FF186E186E02BD00000240BE
:1000D000000000180000070000035F00212200005C
:1000E000F4000018222000A00001001008ED00E03C
:1000F00000000000000000000000000074B24E7A12
:1001000000200420F7010010C3010010C5010010F9
:10011000C1010010C1010010C1010010C101001097
:10012000C1010010C1010010C1010010C701001081
:10013000C1010010C1010010C9010010CB01001065
:10014000CD010010CD010010CD010010CD01001037
:10015000CD010010CD010010CD010010CD01001027
:10016000CD010010CD010010CD010010CD01001017
:10017000CD010010CD010010CD010010CD01001007
:10018000CD010010CD010010CD010010CD010010F7
:10019000CD010010CD010010CD010010CD010010E7
:1001A000CD010010CD010010CD010010CD010010D7
:1001B000CD010010CD010010CD010010CD010010C7
:1001C00000BE00BE00BE00BE00BE00BE00F04BF888
:1001D000103800BEF2EB8871981E0010B41E00109B
:1001E0003402001090A31AE700202149086006C8D5
:1001F00081F3088810471F48006800282FD10DA4FC
:100200000ECC002902D000F012F8F9E71A491B4A77
:10021000002000E001C19142FCD1194988471949E9
:1002200088471949884700BEFDE701C901C29A42C3
:10023000FBD37047B41E0010C00000202C02002029
:1002400020200010000004200000042020200010C6
:1002500000100420001004200000000070470B482C
:1002600001F0F6FA0047EFF30580C0B270470000D6
:1002700008ED00E0000000D030020020F80500206A
:100280003510001011030010251100105756000002
:1002900006005250ABB360533C1E00100600525093
:1002A000861C03024C1E0010060052505422A29DD0
:1002B000641E001005005250DE65F4682020001016
:1002C000F8B5C04606480749091A8B10C90FC91866
:1002D00010B5491003D0044B002B00D0984710BD37
:1002E0002C0200202C02002000000000054B10B55D
:1002F000002B03D00449054800E000BFFFF7E2FFF0
:1003000010BDC04600000000B4050020E01D001034
:1003100070B5D024802519202406AD0400F00CF817
:100320006562FA206561800000F016FBFA20A56185
:10033000800000F011FBF4E70123D0228340120675
:1003400093629361094A40219446830063441A688A
:10035000C0004A408031114080225201134319608D
:10036000034B9C46052360444360704704C0014032
:100370000040014070B5EFF3108C72B60D4D2B6844
:10038000002BFCD0BFF35F8F0724CB08C618C05CDE
:1003900001230C40A3401C000440034207D1184332
:1003A0003070BFF35F8F2C608CF3108870BD10002D
:1003B00000F0BAFE2C0100D0024B18688007C00F75
:1003C0007047C04600C006400021044B044ABFF3FA
:1003D0005F8F02C39342FAD17047C046000100D03C
:1003E000800100D0044A1078431CDBB2172B00D9DF
:1003F000102313707047C0467801002083680B48B3
:1004000010B58446614462441201090159189B18D1
:100410005C684A680120944201D802D00020C0B232
:1004200010BD1A680B689A42F9D8F7E7FFFFFF0F73
:100430000A4B1968EFF3108072B60A68002AFCD0E4
:10044000BFF35F8F1B68BFF35F8F00221A6080F3DA
:10045000108840BF002000217047C046E005002002
:10046000F8B5574645464E46DE46E0B599460CABD4
:100470001C780DAB1B78070090469A460568002C47
:1004800044D1AC7B002C3BD0660029683619033E72
:1004900089194B78AB73002B00D1EB7300238B7061
:1004A0004B700B702E4BE218BB6812019B18424632
:1004B0001A604A465A600A9A9A600B9ADA600023D8
:1004C0008B704B700B706B7B9B46002B32D02200E5
:1004D0005946A8686B68984700281DD05B46584667
:1004E00029685B005B448E19033BB070CA18CB5C73
:1004F000002B00D073705B4614706B735C451AD090
:10050000F0BCBB46B246A946A046F8BD66002968C5
:100510003619033E8919C5E75B465B002A685B44D0
:10052000033BD3189C709119925D002A00D05A7039
:100530005B460B706C7342464B46387D00F0F0FA18
:10054000051E02D05346002B04D00E9B002BD7D0A3
:100550001D70D5E72100386800F02EFDF5E7C04694
:10056000FFFFFF0FF0B5DE464E46574645460023D7
:10057000E0B58DB00A936B4B8200D3580B9099462F
:1005800000239B464B46079300F06AFA079C06003F
:100590000F006268EFF3108572B61368002BFCD071
:1005A00022000794BFF35F8F2468637B9946002B7A
:1005B00066D092685C4B90464B441B01984443467E
:1005C0001A685B6810001900801BB94100295EDDC4
:1005D0000B9800F0A5FA00230026984600279A46BB
:1005E000079C6368BFF35F8F5A461A6085F31088D3
:1005F0005346002B08D10028C6D10DB0F0BCBB4635
:10060000B246A946A046F0BD0A9B414618024B4699
:100610001843D047089009916268EFF3108572B6CD
:100620001368002BFCD00794BFF35F8F0899099AD9
:10063000002A47DB114303D0079B1B69002B5CD1C9
:10064000079B1B68D97B002906D01A68480041180F
:1006500052184946033A51704A46DA734B46079A94
:10066000013BD168CA5C0132CA545B46079A1361E8
:100670005368BFF35F8F5A461A6085F3108883E78B
:1006800000230026984600279A460020A8E7002964
:1006900001D100289CD10021200000F00FFC43462E
:1006A0001E685F689B68079A9A464346DB689846CF
:1006B000D3684B44013B1B780A931B02034313612D
:1006C00000208DE72369002BBAD033003C005B1A71
:1006D00094411A002300A74219D89F421BD05946C3
:1006E00004910121039149460291414601915146ED
:1006F00007980091FFF7B4FEB7E700F0B1F9089A48
:10070000099B06000F0092197B419942E5D901220D
:100710005242D317E3E79642E1D901225242D3175E
:10072000DDE7C046CC050020FFFFFF0FF8B55746B8
:100730004E464546DE46E0B5404D81468A466A68EB
:10074000EFF3108872B61368002BFCD0BFF35F8FF5
:100750002E68B47B002C38D0670033683F19033F04
:10076000DB195A78B273002A00D1F273344AA11807
:10077000AA68090152184946116051465160314931
:1007800091600021D160997059701970737B9B46FC
:10079000002B36D022005946B0687368984700286D
:1007A00021D05B46584631685B005B44CF19033B60
:1007B000B870CA18CB5C002B00D07B705B461470FD
:1007C00073735C451ED0002627E06B68BFF35F8F14
:1007D0001C6088F3108801204042F0BCBB46B24642
:1007E000A946A046F8BD5B465B0032685B44033B0C
:1007F000D3189C70D119D25D002A00D05A705B4684
:100800000B7074734A465346287D00F089F9061E22
:10081000D9D02100286800F0CFFBEB681B19013B01
:1008200019786B68BFF35F8F00221A6088F3108815
:100830000020002ED1D108022043CEE77C01002009
:10084000FFFFFF0F3104001010B5124C6368002B3E
:1008500004D00A21104800F0F1F910BD23000F4A1E
:100860001021206800F042FA032000F0EDF8032088
:1008700000F0C6F903200A4900F00CF9FFF7B2FDB9
:10088000084B9C46032360442375074B800060603F
:10089000DC60DEE77C010020E0050020FD030010A5
:1008A0006505001040000034CC050020F0B50400C0
:1008B0000D0006267642F717C64636196F4100B579
:1008C0008F4213D810D000F0CBF832003B00121A40
:1008D0008B41002B14DC002B37D02900200000F0C6
:1008E000C9F880BCB846F0BD8642ECD90026002786
:1008F00000F0B6F832003B00121A8B41002BEADD03
:1009000030003900FFF712FF0028E6DB002398468D
:10091000BC460F4A0F4F7B6A9C4504D8B96A8E4289
:10092000DBD99C45D9D11168EFF3108072B60B6802
:10093000002BFCD0BFF35F8F1368BFF35F8F41467E
:10094000196080F3108820BFE5E7002AC5D0D7E7FB
:10095000E00500200040054070B5060000F080F87A
:10096000FA2204000D00002330000021920001F063
:1009700027F8001969418D4205D802D0FFF796FF8C
:1009800070BD8442FAD901204042C117F6E7C04643
:10099000F0B5D6464F464646C0B5EFF305823F2335
:1009A000134018001038EFF3108C72B620490A6813
:1009B000002AFCD0BFF35F8F0122170087401D4C37
:1009C0001600A24667631C4C2578A0462C00C44044
:1009D0002640224209D1BFF35F8F0E608CF310884E
:1009E000E0BCBA46B146A846F0BD5246566A134A24
:1009F0008400A25896420ED34246114BBD43E358A1
:100A00001570BFF35F8F00220A608CF31088002BF3
:100A1000E6D09847E4E70B4A9B00904643441A68A7
:100A20001A60BFF35F8F00230B608CF31088D7E749
:100A3000280100D000400540F6050020E405002014
:100A400030050020D03F054010B5034B01001800D1
:100A5000024AFFF78FFC10BDF4050020E01D0010D6
:100A6000034B596A0A00986A596A8A42FAD1704758
:100A700000400540064A536A9942FCD807D1044B0E
:100A800002E05A6A914202D19A6A8242F9D37047CF
:100A90000040054070B504000D00EFF3108672B6FB
:100AA0001A4A1368002BFCD0BFF35F8F002D1BD0B8
:100AB000200000F0C1FC164981420AD0200000F05D
:100AC000C3FC0121200000F0A5FC0123A340114A32
:100AD0001360114BA400E550BFF35F8F00220B4B56
:100AE0001A6086F3108870BD0121A1400A4BA20054
:100AF000D5500A4B20001A788A4305491A7000F035
:100B0000CDFC0021200000F085FCE5E7280100D0A5
:100B1000910900103860054030050020F6050020DE
:100B2000F0B54F46D6464646C0B507002F4C616A21
:100B30000D00A66A616AA942FAD18B4208D805D095
:100B40000120E0BCBA46B146A846F0BDB242F7D992
:100B5000EFF3108A72B6264801680029FCD0BFF373
:100B60005F8F0125BD402349204C8846097889467E
:100B70002943C9B28C46414660460870391D890038
:100B800065630A511C49B8004350216A002029427C
:100B900019D0616A0800A66A616A8142FAD18B4263
:100BA00019D801D1B24216D8CC451DD00F4B1F2207
:100BB0001D625D6301233A409340104A0120136097
:100BC00043464A461A70BFF35F8F0022084B1A60F3
:100BD0008AF31088B5E70020BFF35F8F0022044B33
:100BE0001A608AF31088ACE70120ECE7004005406A
:100BF000280100D0F6050020E405002080E200E096
:100C0000EFF3108C72B60A490B68002BFCD0BFF3CF
:100C10005F8F01238340074A0748136202789A4393
:100C20000270BFF35F8F00230B608CF31088704756
:100C3000280100D000400540F6050020024B9C46EC
:100C400061448900016070474000003410B5040021
:100C5000FFF7C8FB01002000FFF7F0FFFF2323711F
:100C6000BFF35F8F10BDC04610B50400FFF7BAFB9D
:100C700001002000FFF7E2FFFF23A380BFF35F8F97
:100C800010BDC04670B5050014001600002915D02F
:100C90000C00002A12D080686B68984729680028E9
:100CA0000ED073009B196200033B1219CB18033A54
:100CB0009C7088188A5C002A15D10670200070BDCF
:100CC00063001B197200033B9219CB18033A9E7004
:100CD00088188A5C002A02D104703400EEE75A704A
:100CE00004703400EAE75A700670E7E730B58360B5
:100CF0000023CCB243730133047342608373C47323
:100D00000D000068012C06D9421C0133DBB21370C0
:100D100003329C42F9D1FF2129404B005B18C018D7
:100D200000230338437030BDF8B505000C1E07D012
:100D3000630001681B19033BCB185A78002A01D1C4
:100D40002000F8BD500080180338091800204F78A3
:100D50004870210058702800FFF794FF3900060002
:100D60002800FFF7E1FF0400002EE9D0002826D07C
:100D700031002200A8686B689847296800280FD0C6
:100D800063001B197200033B9219CB18033A9E7043
:100D900088188A5C002A00D05A7004703400CFE7AB
:100DA00073009B196200033B1219CB18033A9C7025
:100DB00088188A5C002A00D05A700670C0E7340098
:100DC000BEE7C046F0B557464546DE464E46E0B55E
:100DD0000D006B0001685B19DF1E0400C85D83B065
:100DE0000192CA1900284CD043001B18033BCB18B2
:100DF0005E78B446002E16D1019E002E3ED0E67BD2
:100E0000002E04D073009B19CB18033B5D70E57373
:100E100000282FD10023537003B0F0BCBB46B2466C
:100E2000A946A046F0BD72006244033A8A18517880
:100E30008846002151708946597032000100200017
:100E4000FFF720FF43468246002B07D05B00216856
:100E50004344033BCB185A78002A16D142465146E8
:100E60002000FFF70FFF2168019BCA19002BC6D194
:100E70000028CFD043001B18033BCB1800219970EA
:100E8000C8E7019B002BBAD1C4E750008018033893
:100E900009184878834648464870587041462000F3
:100EA000FFF7F0FE594680462000FFF73DFF414620
:100EB00002002000FFF7E6FE8046CFE7F0B5574678
:100EC0004546DE464E46E0B583B00191457B0400C1
:100ED0006B0000685B19DF1EC15DC21900294ED08E
:100EE0004B005B18033BC3185E78B446002E18D144
:100EF000019E002E40D0E67B002E04D073009B198B
:100F0000C318033B5D70E573002931D1002328002D
:100F10005370617303B0F0BCBB46B246A946A0460D
:100F2000F0BD72006244033A821850788046002077
:100F300050708146587032002000FFF7A3FE4346F0
:100F40008246002B07D05B0021684344033BCB184B
:100F50005A78002A17D1424651462000FFF792FEE8
:100F6000019B01002068C219002BC4D10029CDD0FB
:100F70004B005B18033BC31800209870C6E7019B29
:100F8000002BB8D1C2E75000801803380918487800
:100F9000834648464870587041462000FFF772FE6D
:100FA000594680462000FFF7BFFE41460200200060
:100FB000FFF768FE8046CEE770B5040000292CD00C
:100FC000437B8B422ED00568480040180338281810
:100FD0008278002A21D053009B18033BEA5CEE186C
:100FE0008A4202D11BE0002A08D053009B18033B21
:100FF000EB185A788A42F6D142785A7000230122BF
:10100000837043702000FFF7DDFE617B020020004B
:10101000FFF738FE6073012000E0002070BD4378C8
:101020003370EBE701221900FFF7CCFE607301205B
:10103000F4E7C0462C4B2D4A70B51A602C4A2D4B54
:101040002D491A6014008B689C43FBD12B4D2C4E0C
:10105000B54208D2013E761BB60808CD984723005A
:101060000134B342F9D100F07DF8264A214B1A60D1
:10107000214A9368DB43DB01DD09002BF9D14022D3
:10108000214B224C224E9A675A671A67DA66B4429D
:1010900008D223682000002B20D00834FFF7E4FD9D
:1010A000B442F6D31B4C1C4EC022B168200000F0A5
:1010B000F1FCB460FFF788F900F024FBFFF7C4FBF4
:1010C000164C174EB44208D2013E361BB60808CC67
:1010D00098472B0001359E42F9D170BD0834FFF7C7
:1010E000B5FDB442D5D3DDE700E00040BFCDFBFE47
:1010F000FE7F3C0000F0004000C0004018020020CD
:1011000028020020FFFFFF0100F001401002002034
:10111000180200200000002000ED00E0280200205E
:101120002C02002000BEFDE70FB400B5084883B0D4
:1011300000F0E6FD049B002B07D005A918000191E3
:1011400000F066FB034800F0DBFD00BEFDE7C04693
:10115000041E0010141E001010B50148FFF7E4FF34
:10116000181E001010B50C2082B000F02DFBFFF708
:1011700023F900280ED0854B854A1A605A609A6080
:10118000DA601A615A619A61DA611A62814A5A62B6
:1011900002B010BD804CA06700F01EFB01227F4B07
:1011A0001A60636C012BFCD103227D4B1A607A4AD2
:1011B000936B012BFCD1022401217A4A7A48053332
:1011C000009400F0B1FA0523784A01217848009490
:1011D00000F0AAFA774B5A68FF2A02D88022520000
:1011E0005A6080226E4B694C12011A6021690029F5
:1011F00005D0606900F05EFB01300138FDD1E022CE
:101200006C4B6D4819680A4002600222196851400F
:1012100001320A40042102609A681142FCD0802108
:10122000664A09011160802252005A60644B2361B2
:10123000644B5968FF2900D85A6003220121574B9B
:101240001A60604A93681942FCD0E023106803409A
:101250005D480360126803234A4002211340594A43
:10126000036093681942FCD08021584B0901196032
:101270008021574B490051606361564B5A68FF2AE1
:1012800000D859608022544B12011A60E16900298C
:1012900005D0606900F00EFB01300138FDD1E0237C
:1012A0004C4A11680B404D490B6080214C4B0901A1
:1012B00019608021364B49005160E361494B5A68FF
:1012C000FF2A00D859608022474B12011A60216A18
:1012D000002905D0606900F0EDFA01300138FDD138
:1012E000E023404A11680B4040490B608021404B8D
:1012F0000901196080235B0053608022244BD202D5
:1013000023623C4B5968914200D25A6080223A4B8A
:1013100012011A60616A002905D0606900F0CAFAFA
:1013200001300138FDD1E023324A11680B403349C6
:101330000B608021324B090119608023DB0253606E
:10134000144B63622F4B5A68FF2A02D88022520046
:101350005A6080222C4B12011A60A169002905D025
:10136000606900F0A7FA01300138FDD1E023254A79
:1013700011680B4025490B608021254B090119603C
:1013800080235B005360124BA36101E740050020FE
:10139000006CDC021BB70000008000403CB0004045
:1013A00030B00040002F68590080024000389C1C7B
:1013B00000C00240308000403090004030A000402B
:1013C000001BB7003C8000403C9000403CA0004027
:1013D000405973075480004054B00040549000407E
:1013E00054A000406080004060B000406090004029
:1013F00060A000406C8000406CB000406C900040E9
:101400006CA000404880004048B000404890004038
:1014100048A0004001238340002904D0034A136000
:10142000034A13607047034A1360FBE780E200E061
:1014300000E100E080E100E0024B10309B6880009A
:10144000C058704700ED00E070B50D00EFF3108656
:1014500072B60F4A1368002BFCD0BFF35F8F0D4BA1
:1014600010309B6884001B590B4A934203D09D4265
:1014700001D0FFF771FE074B9B681D51BFF35F8FD3
:10148000BFF35F8F0022024B1A6086F3108870BD95
:10149000240100D000ED00E0CD010010F0B5DE46E3
:1014A00057464E464546E0B50C0083B0EFF3108A30
:1014B00072B65A4A1368002BFCD0BFF35F8F10221C
:1014C000914681444A46564B96009B689D59554B20
:1014D00098469D4205D0A54216D0534FEB1B2F2BAB
:1014E00014D94F4B9B689D51BFF35F8FBFF35F8F44
:1014F00000224A4B1A608AF3108803B0F0BCBB4646
:10150000B246A946A046F0BD1D00EAE7012383408C
:101510009B465A46454B1B681A4000925A46444B1C
:101520001A60BFF35F8FFEF79EFE0190002803D084
:10153000814501D0FFF710FE01232A009A431300D2
:101540003C49DB1B5B415943090D93689C4208D120
:101550005AE043001B189B00FB189868A04211D06A
:101560001A00062010560028F3DA009B002B05D045
:101570005A46314B1A602D4B1A60B2E75A462C4B33
:101580001A60AEE706201856002821DB4200111829
:1015900089007C188846A1689960E179D971062193
:1015A0006156997100291FDBA488F91A6405241576
:1015B00044440919E0240905490D24022143998076
:1015C0001E4B121819789200BA1891711870CCE756
:1015D000019800280BD1FF30907119489080174A6C
:1015E000107811709871C0E7BD210902E7E7154A2C
:1015F0001549D21A083A5002400D01439980134907
:1016000052080A43DA80B0E706201056130000287B
:10161000BCDA019A002AEAD14546E0E7240100D06D
:1016200000ED00E0CD010010A401002000E100E089
:1016300080E100E0AAAA000080E200E0F5050020B9
:1016400000BDFFFFDE01002000F0FFFF00F8FFFFFC
:10165000F8B5012504000543FEF705FEEFF3108CF5
:1016600072B6214A1368002BFCD0BFF35F8F1F4E68
:101670002100B7681E4A1F4B891A49414B431B0D75
:1016800059B28300F858A8421CD00623D3568B4287
:101690001CD01223D3568B4222D01E23D3568B420A
:1016A00020D02A23D35603208B4210D0124B1A7815
:1016B0001970A271BFF35F8F00220B4B1A608CF37D
:1016C0001088F8BDB2680D48D050EFE70020430005
:1016D0001B189B00D218FF239371094B9380E5E7F9
:1016E0000120F4E70220F2E7240100D000ED00E041
:1016F000A4010020AAAA0000F5050020CD010010D9
:1017000000BDFFFF054B064A1360064A1360536095
:101710009360D360136153619361704780808080D0
:1017200000E400E004E400E0F8B504000C20170039
:101730001D000E0000F0BEF843011B1A9901C91AE2
:10174000C90009188901380000F0B4F8069B290483
:101750001B0319432368002B20DB174B174DE3189D
:101760005A4253418022520194461B03144A634457
:101770001360144A13601F00AA689743FBD1C0236B
:10178000221D9B01134321222660A0601A6022685B
:10179000002AFCDA0822E1601A60F8BD3F232268C3
:1017A0001340B342D9D1A3681B051B0D8342D4D18A
:1017B000E3680029D1D1F0E70040FDBF00C0004040
:1017C00000E0004000F000408023024A9B000343F9
:1017D000D362704700800540AA23064A1B011360AC
:1017E0002F230549D360054B19605368002BFCDAA1
:1017F0007047C0460040024000B0FA00006002405E
:1018000010B5002800D110BD00F02AFAFBE7C04651
:1018100010B5094A0300146884B0002C08D00122D6
:1018200000910648524203A9A047012004B010BD10
:1018300000F066FA0020F9E7B0050020011800105A
:1018400001480421014B1847F001002071180010D5
:10185000142310B50100188804331B88984710BD65
:10186000162310B50100188802331B88984710BD55
:10187000F8B54746CE4680B50F1E19D014239946B9
:10188000043304000025012698464B461888434639
:1018900021681B88984701C4431E98410135404286
:1018A0000640AF42F1D13000C0BCB946B046F8BDE9
:1018B0000126F8E7114A936F9B0813D21066516610
:1018C000002905D0FFE7FFE7FFE7516F106F704772
:1018D00004B5002801D00020C04300F069FA0021BF
:1018E00004BDC046F0B5146E556E576F166FFFF706
:1018F000E5FF1466556657671667F0BD000000D017
:10190000132370B51D78012D15D010DD1C48FFF78D
:10191000A7FF1C4C01008022200000F0BBF8022D24
:1019200006D01948FFF794FF184B186070BD154C8E
:10193000174BA364F5E7164B124C23606360A3605A
:10194000E36023616361A361E36123626362A36275
:10195000E36223636363A363E36323646364A36455
:10196000E36423656365A365E36523666366A36635
:10197000E36623676367A367E367A364D1E7C046B1
:1019800053440000300300204C330000DC050020ED
:101990009519001007B5604601880A0A0230DF2A4F
:1019A000FAD1C9B2820804D30288408800041043E7
:1019B00000E00068014A5050039007BD300300204A
:1019C00051434343C9188C46110C83B24B4310B4A6
:1019D000040C614392B280B2504362431C041B0C5E
:1019E000001910BC59411304120CC0185141614434
:1019F00070470000132310B512481C78FFF730FF22
:101A00000100012C0AD003DD80220F4800F042F8CB
:101A10000E48FFF71DFF0E4B186010BD0A4C5422F4
:101A2000200000F037F80B4B6365A365E365236680
:101A30006366A366E36623676367A367E36723625E
:101A4000E361E5E753460000300400204C3300001A
:101A5000DC050020591A001007B5604601880A0A03
:101A60000230DF2AFAD1C9B2820804D30288408842
:101A70000004104300E00068014A5050039007BD85
:101A80003004002001480421014B184700020020C7
:101A900071180010014B5B6818470000000200201D
:101AA000030010B5080011001B68984710BDC04620
:101AB000F0B546464F46D646C0B5437C80460E003C
:101AC0001700002B46D0002A3FDD4B1E9946244BC1
:101AD0000125002400209A460DE04B461B5D0D3B7E
:101AE0005A425341325DDBB20A2A0BD02B0001343B
:101AF00001359F421ADD002CEFD14346325D1B7C3D
:101B00000A2AF3D1002BF1D1A04204DA4346211A6C
:101B10001B6830189847434650461B680221984777
:101B2000013428002B0001359F42E4DC874204DDAC
:101B30004346391A1B6830189847F619013E337826
:101B40000D3B5A42534142461374E0BCBA46B1467B
:101B5000A846F0BD0368110030009847F5E7C0467D
:101B6000941E0010F0B557464E464546DE461C0012
:101B7000D023E0B51B061F68344B83B006000D0070
:101B8000180001A991469A4600F01AF980460028EB
:101B900008D1019B7FB29F4204D0504600F018F953
:101BA000012398466B1C03D1300000F0C7F80500F4
:101BB000002C27D1264F274B1C68002C18D04B46F1
:101BC000002B21D1244B994602E0E468002C0FD071
:101BD0002368002BF9D04B461B68002B01D0A34291
:101BE000F3D120002A003100B847E468002CEFD17F
:101BF0004346002B25D103B0F0BCBB46B246A946F4
:101C0000A046F0BD154FD6E7134B99460A239B46D5
:101C100002E0E468002CEBD02368002BF9D04B469F
:101C20001B68002B01D0A342F3D12A003100200011
:101C3000B8475A466B4620001A7101A90122B847DD
:101C4000E7E7504600F0ACF8D5E7C04610020020A8
:101C5000B11A0010A8050020AC050020A11A001040
:101C6000F0B5CE46474680B583B06B46DE1CD02328
:101C700030701B061C681F4B804601A9180099464E
:101C800000F09EF8071E20D01B4B1C68002C28D0AB
:101C90001A4D02E0E468002C0FD02368002BF9D025
:101CA0002B68002B01D0A342F4D120000122310087
:101CB000FFF7FEFEE468002CEFD1002F11D1404663
:101CC00003B0C0BCB946B046F0BD019B64B29C42B3
:101CD0000BD0484600F07CF8074B01271C68002C0D
:101CE000D6D1484600F05CF8E9E7034B1C68002CAD
:101CF000CED1E4E710020020A8050020AC050020AA
:101D000070B5040000F01AF800230100050001225C
:101D10002000FFF727FF084B1C68002C06D06368E3
:101D2000002B05D09847E468002CF8D1280070BD3E
:101D3000E468002CF3D1F9E7A805002010B583076B
:101D40000AD00300032102E001330B4205D01A78C8
:101D5000002AF9D1181A10BD030019680C4A0D4C5D
:101D60008A188A4322420FD15968094A04338A18D3
:101D70008A43224208D15968054A04338A188A43A3
:101D80002242F1D000E001331A78002AFBD1E1E7CA
:101D9000FFFEFEFE80808080F8B5C0460000000097
:101DA00001B40248844601BC604700BF4D010020D9
:101DB00001B40248844601BC604700BF75010020A1
:101DC00001B40248844601BC604700BF09010020FD
:101DD00001B40248844601BC604700BFC100002036
:101DE000486172647761726520616C61726D202553
:101DF0006420616C726561647920636C61696D65F2
:101E0000640000000A2A2A2A2050414E4943202A11
:101E10002A2A0A000A000000486172642061737374
:101E20006572740052656C6561736500626F6F74F2
:101E3000325F77323571303830000000312E332E6A
:101E4000300000007069636F000000007069636F0C
:101E50006B65795F73657269616C5F6465766963F0
:101E60006500000041707220323920323032320079
:101E700006005250BBFF3CB6441E001006005250F4
:101E8000E182887F2C1E001006005250D3F075426C
:081E9000241E00100D0A0000E1
:101E9800B4020010A80200109C020010701E00106E
:0C1EA800900200107C1E0010881E00102C
:101EB400D02330B500251B0600245D5706E00368D7
:101EC400BFF35F8F1C6081F3108820BF0268EFF3BB
:101ED400108172B61368002BFCD0BFF35F8F0379B7
:101EE4007F2BECD905710368BFF35F8F00221A6062
:101EF40081F3108830BDC04603000068EFF3108CF6
:101F040072B60268002AFCD0BFF35F8F04229A568F
:101F1400002A0BDB00290FD000200A601B68BFF3E6
:101F24005F8F00221A608CF310887047D02212064B
:101F3400126801201A71F1E70020EFE70268EFF35D
:101F4400108172B61368002BFCD0BFF35F8FFF23A0
:101F540003710368BFF35F8F00221A6081F3108856
:101F640040BF70477047C046100000009401002035
:101F7400000000003002002068050020000000007E
:101F840000000000780500200000000000000000B0
:101F9400100000000000000000000100000000002C
:101FA400000000000000020000000000000000002B
:101FB4000000030000000000000000000000FF001B
:101FC4000000000000B5486801318E4600477046A5
:101FD40009380149884700BD51160010000000006F
:101FE400503300004C3300005433000052330000DF
:101FF4004D5300004D4300005334000043340000AF
:102004000000000000000000851A001041180010B4
:0C20140001190010F5190010ED02001079
:04000005100001E9FD
:00000001FF
